{
  "contractName": "BinaryBetting",
  "abi": [
    {
      "constant": true,
      "inputs": [],
      "name": "REWARD_PERCENT",
      "outputs": [
        {
          "name": "",
          "type": "uint256"
        }
      ],
      "payable": false,
      "stateMutability": "view",
      "type": "function"
    },
    {
      "constant": true,
      "inputs": [],
      "name": "verifyDuration",
      "outputs": [
        {
          "name": "",
          "type": "uint256"
        }
      ],
      "payable": false,
      "stateMutability": "view",
      "type": "function"
    },
    {
      "constant": true,
      "inputs": [],
      "name": "REFUND_PERCENT",
      "outputs": [
        {
          "name": "",
          "type": "uint256"
        }
      ],
      "payable": false,
      "stateMutability": "view",
      "type": "function"
    },
    {
      "constant": true,
      "inputs": [
        {
          "name": "",
          "type": "uint256"
        }
      ],
      "name": "amounts",
      "outputs": [
        {
          "name": "",
          "type": "uint256"
        }
      ],
      "payable": false,
      "stateMutability": "view",
      "type": "function"
    },
    {
      "constant": true,
      "inputs": [
        {
          "name": "",
          "type": "address"
        }
      ],
      "name": "player",
      "outputs": [
        {
          "components": [
            {
              "name": "factor",
              "type": "uint256"
            },
            {
              "name": "amount",
              "type": "uint256"
            },
            {
              "name": "id",
              "type": "uint256"
            }
          ],
          "name": "roomId",
          "type": "tuple"
        },
        {
          "name": "state",
          "type": "uint8"
        },
        {
          "name": "hstring",
          "type": "bytes32"
        },
        {
          "name": "random",
          "type": "uint256"
        },
        {
          "name": "pos",
          "type": "uint256"
        }
      ],
      "payable": false,
      "stateMutability": "view",
      "type": "function"
    },
    {
      "constant": true,
      "inputs": [],
      "name": "totalIncome",
      "outputs": [
        {
          "name": "",
          "type": "uint256"
        }
      ],
      "payable": false,
      "stateMutability": "view",
      "type": "function"
    },
    {
      "constant": true,
      "inputs": [
        {
          "name": "",
          "type": "uint256"
        }
      ],
      "name": "factorExist",
      "outputs": [
        {
          "name": "",
          "type": "bool"
        }
      ],
      "payable": false,
      "stateMutability": "view",
      "type": "function"
    },
    {
      "constant": true,
      "inputs": [],
      "name": "DICE_DURATION",
      "outputs": [
        {
          "name": "",
          "type": "uint256"
        }
      ],
      "payable": false,
      "stateMutability": "view",
      "type": "function"
    },
    {
      "constant": true,
      "inputs": [
        {
          "name": "",
          "type": "uint256"
        }
      ],
      "name": "amountExist",
      "outputs": [
        {
          "name": "",
          "type": "bool"
        }
      ],
      "payable": false,
      "stateMutability": "view",
      "type": "function"
    },
    {
      "constant": true,
      "inputs": [],
      "name": "bank",
      "outputs": [
        {
          "name": "",
          "type": "address"
        }
      ],
      "payable": false,
      "stateMutability": "view",
      "type": "function"
    },
    {
      "constant": true,
      "inputs": [
        {
          "name": "",
          "type": "uint256"
        }
      ],
      "name": "factors",
      "outputs": [
        {
          "name": "",
          "type": "uint256"
        }
      ],
      "payable": false,
      "stateMutability": "view",
      "type": "function"
    },
    {
      "constant": true,
      "inputs": [],
      "name": "owner",
      "outputs": [
        {
          "name": "",
          "type": "address"
        }
      ],
      "payable": false,
      "stateMutability": "view",
      "type": "function"
    },
    {
      "constant": true,
      "inputs": [],
      "name": "ownerPercent",
      "outputs": [
        {
          "name": "",
          "type": "uint256"
        }
      ],
      "payable": false,
      "stateMutability": "view",
      "type": "function"
    },
    {
      "constant": true,
      "inputs": [],
      "name": "pendingAmount",
      "outputs": [
        {
          "name": "",
          "type": "uint256"
        }
      ],
      "payable": false,
      "stateMutability": "view",
      "type": "function"
    },
    {
      "constant": true,
      "inputs": [
        {
          "name": "",
          "type": "uint256"
        },
        {
          "name": "",
          "type": "uint256"
        }
      ],
      "name": "roomNumber",
      "outputs": [
        {
          "name": "",
          "type": "uint256"
        }
      ],
      "payable": false,
      "stateMutability": "view",
      "type": "function"
    },
    {
      "constant": true,
      "inputs": [
        {
          "name": "",
          "type": "uint256"
        },
        {
          "name": "",
          "type": "uint256"
        },
        {
          "name": "",
          "type": "uint256"
        }
      ],
      "name": "room",
      "outputs": [
        {
          "name": "endTime",
          "type": "uint256"
        },
        {
          "name": "count",
          "type": "uint256"
        },
        {
          "name": "state",
          "type": "uint8"
        }
      ],
      "payable": false,
      "stateMutability": "view",
      "type": "function"
    },
    {
      "constant": true,
      "inputs": [],
      "name": "INACTIVE_DURATION",
      "outputs": [
        {
          "name": "",
          "type": "uint256"
        }
      ],
      "payable": false,
      "stateMutability": "view",
      "type": "function"
    },
    {
      "inputs": [
        {
          "name": "_bank",
          "type": "address"
        }
      ],
      "payable": false,
      "stateMutability": "nonpayable",
      "type": "constructor"
    },
    {
      "anonymous": false,
      "inputs": [
        {
          "indexed": false,
          "name": "_amount",
          "type": "uint256"
        },
        {
          "indexed": false,
          "name": "_factor",
          "type": "uint256"
        },
        {
          "indexed": false,
          "name": "_id",
          "type": "uint256"
        }
      ],
      "name": "RoomLocked",
      "type": "event"
    },
    {
      "anonymous": false,
      "inputs": [
        {
          "indexed": false,
          "name": "_amount",
          "type": "uint256"
        },
        {
          "indexed": false,
          "name": "_factor",
          "type": "uint256"
        },
        {
          "indexed": false,
          "name": "_id",
          "type": "uint256"
        }
      ],
      "name": "RoomCleaned",
      "type": "event"
    },
    {
      "anonymous": false,
      "inputs": [
        {
          "indexed": false,
          "name": "_address",
          "type": "address"
        },
        {
          "indexed": false,
          "name": "_id",
          "type": "uint256"
        },
        {
          "indexed": false,
          "name": "_pos",
          "type": "uint256"
        }
      ],
      "name": "JoinSuccess",
      "type": "event"
    },
    {
      "anonymous": false,
      "inputs": [
        {
          "indexed": false,
          "name": "_address",
          "type": "address"
        },
        {
          "indexed": false,
          "name": "_amount",
          "type": "uint256"
        }
      ],
      "name": "RefundSuccess",
      "type": "event"
    },
    {
      "anonymous": false,
      "inputs": [
        {
          "indexed": false,
          "name": "_address",
          "type": "address"
        }
      ],
      "name": "LeaveSuccess",
      "type": "event"
    },
    {
      "anonymous": false,
      "inputs": [
        {
          "indexed": false,
          "name": "_address",
          "type": "address"
        }
      ],
      "name": "BadNews",
      "type": "event"
    },
    {
      "anonymous": false,
      "inputs": [
        {
          "indexed": false,
          "name": "_address",
          "type": "address"
        },
        {
          "indexed": false,
          "name": "_amount",
          "type": "uint256"
        }
      ],
      "name": "GoodNews",
      "type": "event"
    },
    {
      "anonymous": false,
      "inputs": [
        {
          "indexed": false,
          "name": "_amount",
          "type": "uint256"
        },
        {
          "indexed": false,
          "name": "_factor",
          "type": "uint256"
        },
        {
          "indexed": false,
          "name": "_id",
          "type": "uint256"
        }
      ],
      "name": "HashRequest",
      "type": "event"
    },
    {
      "anonymous": false,
      "inputs": [
        {
          "indexed": false,
          "name": "_address",
          "type": "address"
        }
      ],
      "name": "HashSent",
      "type": "event"
    },
    {
      "anonymous": false,
      "inputs": [
        {
          "indexed": false,
          "name": "_amount",
          "type": "uint256"
        },
        {
          "indexed": false,
          "name": "_factor",
          "type": "uint256"
        },
        {
          "indexed": false,
          "name": "_id",
          "type": "uint256"
        }
      ],
      "name": "RandomRequest",
      "type": "event"
    },
    {
      "anonymous": false,
      "inputs": [
        {
          "indexed": false,
          "name": "_address",
          "type": "address"
        }
      ],
      "name": "RandomSent",
      "type": "event"
    },
    {
      "constant": false,
      "inputs": [
        {
          "name": "_amount",
          "type": "uint256"
        }
      ],
      "name": "addAmount",
      "outputs": [],
      "payable": false,
      "stateMutability": "nonpayable",
      "type": "function"
    },
    {
      "constant": false,
      "inputs": [
        {
          "name": "_factor",
          "type": "uint256"
        }
      ],
      "name": "addFactor",
      "outputs": [],
      "payable": false,
      "stateMutability": "nonpayable",
      "type": "function"
    },
    {
      "constant": false,
      "inputs": [],
      "name": "pushToBank",
      "outputs": [],
      "payable": false,
      "stateMutability": "nonpayable",
      "type": "function"
    },
    {
      "constant": false,
      "inputs": [],
      "name": "cleanInactiveRooms",
      "outputs": [],
      "payable": false,
      "stateMutability": "nonpayable",
      "type": "function"
    },
    {
      "constant": true,
      "inputs": [],
      "name": "getBalance",
      "outputs": [
        {
          "name": "",
          "type": "uint256"
        }
      ],
      "payable": false,
      "stateMutability": "view",
      "type": "function"
    },
    {
      "constant": true,
      "inputs": [],
      "name": "roomAsleep",
      "outputs": [
        {
          "name": "",
          "type": "bool"
        }
      ],
      "payable": false,
      "stateMutability": "view",
      "type": "function"
    },
    {
      "constant": false,
      "inputs": [],
      "name": "roomWakeUp",
      "outputs": [],
      "payable": false,
      "stateMutability": "nonpayable",
      "type": "function"
    },
    {
      "constant": false,
      "inputs": [],
      "name": "activeRoundFighting",
      "outputs": [],
      "payable": false,
      "stateMutability": "nonpayable",
      "type": "function"
    },
    {
      "constant": false,
      "inputs": [
        {
          "name": "_hstring",
          "type": "bytes32"
        }
      ],
      "name": "sendHash",
      "outputs": [],
      "payable": false,
      "stateMutability": "nonpayable",
      "type": "function"
    },
    {
      "constant": false,
      "inputs": [
        {
          "name": "_random",
          "type": "uint256"
        }
      ],
      "name": "sendRandom",
      "outputs": [],
      "payable": false,
      "stateMutability": "nonpayable",
      "type": "function"
    },
    {
      "constant": false,
      "inputs": [
        {
          "name": "_amount",
          "type": "uint256"
        },
        {
          "name": "_factor",
          "type": "uint256"
        },
        {
          "name": "_id",
          "type": "uint256"
        }
      ],
      "name": "joinRoom",
      "outputs": [],
      "payable": true,
      "stateMutability": "payable",
      "type": "function"
    },
    {
      "constant": false,
      "inputs": [
        {
          "name": "_amount",
          "type": "uint256"
        },
        {
          "name": "_factor",
          "type": "uint256"
        }
      ],
      "name": "joinQueue",
      "outputs": [],
      "payable": true,
      "stateMutability": "payable",
      "type": "function"
    },
    {
      "constant": false,
      "inputs": [],
      "name": "leaveQueue",
      "outputs": [],
      "payable": false,
      "stateMutability": "nonpayable",
      "type": "function"
    },
    {
      "constant": true,
      "inputs": [],
      "name": "getAmounts",
      "outputs": [
        {
          "name": "",
          "type": "uint256[]"
        }
      ],
      "payable": false,
      "stateMutability": "view",
      "type": "function"
    },
    {
      "constant": true,
      "inputs": [],
      "name": "getFactors",
      "outputs": [
        {
          "name": "",
          "type": "uint256[]"
        }
      ],
      "payable": false,
      "stateMutability": "view",
      "type": "function"
    },
    {
      "constant": true,
      "inputs": [
        {
          "name": "_amount",
          "type": "uint256"
        },
        {
          "name": "_factor",
          "type": "uint256"
        }
      ],
      "name": "getRoomNumber",
      "outputs": [
        {
          "name": "",
          "type": "uint256"
        }
      ],
      "payable": false,
      "stateMutability": "view",
      "type": "function"
    },
    {
      "constant": true,
      "inputs": [],
      "name": "getRoomState",
      "outputs": [
        {
          "name": "",
          "type": "uint8"
        }
      ],
      "payable": false,
      "stateMutability": "view",
      "type": "function"
    },
    {
      "constant": true,
      "inputs": [],
      "name": "getRoomRestPlayers",
      "outputs": [
        {
          "name": "",
          "type": "uint256"
        }
      ],
      "payable": false,
      "stateMutability": "view",
      "type": "function"
    },
    {
      "constant": true,
      "inputs": [
        {
          "name": "_amount",
          "type": "uint256"
        },
        {
          "name": "_factor",
          "type": "uint256"
        },
        {
          "name": "_id",
          "type": "uint256"
        }
      ],
      "name": "getRoomPlayerList",
      "outputs": [
        {
          "name": "",
          "type": "address[]"
        }
      ],
      "payable": false,
      "stateMutability": "view",
      "type": "function"
    },
    {
      "constant": true,
      "inputs": [],
      "name": "getPlayerState",
      "outputs": [
        {
          "name": "",
          "type": "uint8"
        }
      ],
      "payable": false,
      "stateMutability": "view",
      "type": "function"
    },
    {
      "constant": true,
      "inputs": [],
      "name": "getRoomAmount",
      "outputs": [
        {
          "name": "",
          "type": "uint256"
        }
      ],
      "payable": false,
      "stateMutability": "view",
      "type": "function"
    },
    {
      "constant": true,
      "inputs": [],
      "name": "getRoomFactor",
      "outputs": [
        {
          "name": "",
          "type": "uint256"
        }
      ],
      "payable": false,
      "stateMutability": "view",
      "type": "function"
    },
    {
      "constant": true,
      "inputs": [],
      "name": "getRoomId",
      "outputs": [
        {
          "name": "",
          "type": "uint256"
        }
      ],
      "payable": false,
      "stateMutability": "view",
      "type": "function"
    },
    {
      "constant": false,
      "inputs": [],
      "name": "_initForAdmin",
      "outputs": [],
      "payable": false,
      "stateMutability": "nonpayable",
      "type": "function"
    },
    {
      "constant": true,
      "inputs": [],
      "name": "getProfit",
      "outputs": [
        {
          "name": "",
          "type": "uint256"
        }
      ],
      "payable": false,
      "stateMutability": "view",
      "type": "function"
    }
  ],
  "bytecode": "0x60806040523480156200001157600080fd5b506040516020806200575d8339810180604052810190808051906020019092919050505033600360006101000a81548173ffffffffffffffffffffffffffffffffffffffff021916908373ffffffffffffffffffffffffffffffffffffffff16021790555080600260006101000a81548173ffffffffffffffffffffffffffffffffffffffff021916908373ffffffffffffffffffffffffffffffffffffffff160217905550620000d0620000e6640100000000026401000000009004565b60008081905550600060018190555050620005c9565b600360009054906101000a900473ffffffffffffffffffffffffffffffffffffffff1673ffffffffffffffffffffffffffffffffffffffff163373ffffffffffffffffffffffffffffffffffffffff16141515620001ac576040517f08c379a000000000000000000000000000000000000000000000000000000000815260040180806020018281038252600a8152602001807f4f6e776572204f6e6c790000000000000000000000000000000000000000000081525060200191505060405180910390fd5b620001c7600162000250640100000000026401000000009004565b620001e2600262000250640100000000026401000000009004565b620001fd600562000250640100000000026401000000009004565b62000218600162000408640100000000026401000000009004565b62000233600262000408640100000000026401000000009004565b6200024e600362000408640100000000026401000000009004565b565b600360009054906101000a900473ffffffffffffffffffffffffffffffffffffffff1673ffffffffffffffffffffffffffffffffffffffff163373ffffffffffffffffffffffffffffffffffffffff1614151562000316576040517f08c379a000000000000000000000000000000000000000000000000000000000815260040180806020018281038252600a8152602001807f4f6e776572204f6e6c790000000000000000000000000000000000000000000081525060200191505060405180910390fd5b6008600082815260200190815260200160002060009054906101000a900460ff16151515620003ad576040517f08c379a00000000000000000000000000000000000000000000000000000000081526004018080602001828103825260148152602001807f416d6f756e7420616c726561647920657869737400000000000000000000000081525060200191505060405180910390fd5b600681908060018154018082558091505090600182039060005260206000200160009091929091909150555060016008600083815260200190815260200160002060006101000a81548160ff02191690831515021790555050565b600360009054906101000a900473ffffffffffffffffffffffffffffffffffffffff1673ffffffffffffffffffffffffffffffffffffffff163373ffffffffffffffffffffffffffffffffffffffff16141515620004ce576040517f08c379a000000000000000000000000000000000000000000000000000000000815260040180806020018281038252600a8152602001807f4f6e776572204f6e6c790000000000000000000000000000000000000000000081525060200191505060405180910390fd5b600960008260020a815260200190815260200160002060009054906101000a900460ff1615151562000568576040517f08c379a00000000000000000000000000000000000000000000000000000000081526004018080602001828103825260148152602001807f466163746f7220616c726561647920657869737400000000000000000000000081525060200191505060405180910390fd5b60078160020a90806001815401808255809150509060018203906000526020600020016000909192909190915055506001600960008360020a815260200190815260200160002060006101000a81548160ff02191690831515021790555050565b61518480620005d96000396000f300608060405260043610610204576000357c0100000000000000000000000000000000000000000000000000000000900463ffffffff16806306fbedbe146102095780630912f2321461023457806312065fe01461026157806318430bd11461028c57806320a19692146102b957806320e8cd7d146102e4578063247299e4146102fb578063315073d51461031257806334cb573b1461033d5780633ce699bd146103d35780633d370b4e146104025780633ef37e301461046e57806345f0a44f146104995780634c54e1b5146104da578063522577e9146105635780635357c2ee1461058e57806356c2b5c9146105d3578063679dffb4146105fe5780636801a6b4146106295780636c4941f5146106405780636e41bbfa1461067957806376cdb03b146106be578063770228081461071557806381c11e46146107565780638204b22c146107a15780638465de04146107cb57806386fbd66c146107e25780638da5cb5b1461080d57806395d1200014610864578063ad34d96d1461088f578063af941593146108c8578063b4539a15146108fc578063ba1066ed14610913578063ba77d1051461093e578063bbfc2bdf14610969578063c5fc5b9614610996578063d095f2c2146109c1578063e6ffc4aa14610a0c578063e794ad4114610a7d578063ea35f9e314610a94578063ee6dd9fa14610abf578063f8320e2114610af0575b600080fd5b34801561021557600080fd5b5061021e610b5c565b6040518082815260200191505060405180910390f35b34801561024057600080fd5b5061025f60048036038101908080359060200190929190505050610b61565b005b34801561026d57600080fd5b50610276610d17565b6040518082815260200191505060405180910390f35b34801561029857600080fd5b506102b760048036038101908080359060200190929190505050610d36565b005b3480156102c557600080fd5b506102ce611230565b6040518082815260200191505060405180910390f35b3480156102f057600080fd5b506102f9611430565b005b34801561030757600080fd5b506103106114c6565b005b34801561031e57600080fd5b506103276115ec565b6040518082815260200191505060405180910390f35b34801561034957600080fd5b5061037c6004803603810190808035906020019092919080359060200190929190803590602001909291905050506115f2565b6040518080602001828103825283818151815260200191508051906020019060200280838360005b838110156103bf5780820151818401526020810190506103a4565b505050509050019250505060405180910390f35b3480156103df57600080fd5b506103e86116ba565b604051808215151515815260200191505060405180910390f35b34801561040e57600080fd5b506104176117d0565b6040518080602001828103825283818151815260200191508051906020019060200280838360005b8381101561045a57808201518184015260208101905061043f565b505050509050019250505060405180910390f35b34801561047a57600080fd5b50610483611828565b6040518082815260200191505060405180910390f35b3480156104a557600080fd5b506104c46004803603810190808035906020019092919050505061182d565b6040518082815260200191505060405180910390f35b3480156104e657600080fd5b5061051b600480360381019080803573ffffffffffffffffffffffffffffffffffffffff169060200190929190505050611850565b6040518086815260200185600481111561053157fe5b60ff16815260200184600019166000191681526020018381526020018281526020019550505050505060405180910390f35b34801561056f57600080fd5b506105786118bc565b6040518082815260200191505060405180910390f35b34801561059a57600080fd5b506105b9600480360381019080803590602001909291905050506118c2565b604051808215151515815260200191505060405180910390f35b3480156105df57600080fd5b506105e86118e2565b6040518082815260200191505060405180910390f35b34801561060a57600080fd5b506106136118e7565b6040518082815260200191505060405180910390f35b34801561063557600080fd5b5061063e611905565b005b34801561064c57600080fd5b50610655611a08565b6040518082600481111561066557fe5b60ff16815260200191505060405180910390f35b34801561068557600080fd5b506106a460048036038101908080359060200190929190505050611a5f565b604051808215151515815260200191505060405180910390f35b3480156106ca57600080fd5b506106d3611a7f565b604051808273ffffffffffffffffffffffffffffffffffffffff1673ffffffffffffffffffffffffffffffffffffffff16815260200191505060405180910390f35b34801561072157600080fd5b5061074060048036038101908080359060200190929190505050611aa5565b6040518082815260200191505060405180910390f35b34801561076257600080fd5b5061078b6004803603810190808035906020019092919080359060200190929190505050611ac8565b6040518082815260200191505060405180910390f35b6107c96004803603810190808035906020019092919080359060200190929190505050611af7565b005b3480156107d757600080fd5b506107e0611cbf565b005b3480156107ee57600080fd5b506107f76120b3565b6040518082815260200191505060405180910390f35b34801561081957600080fd5b506108226121dd565b604051808273ffffffffffffffffffffffffffffffffffffffff1673ffffffffffffffffffffffffffffffffffffffff16815260200191505060405180910390f35b34801561087057600080fd5b50610879612203565b6040518082815260200191505060405180910390f35b34801561089b57600080fd5b506108a4612209565b604051808260038111156108b457fe5b60ff16815260200191505060405180910390f35b6108fa600480360381019080803590602001909291908035906020019092919080359060200190929190505050612413565b005b34801561090857600080fd5b5061091161298d565b005b34801561091f57600080fd5b50610928612cab565b6040518082815260200191505060405180910390f35b34801561094a57600080fd5b50610953612cb1565b6040518082815260200191505060405180910390f35b34801561097557600080fd5b5061099460048036038101908080359060200190929190505050612ddb565b005b3480156109a257600080fd5b506109ab612f9a565b6040518082815260200191505060405180910390f35b3480156109cd57600080fd5b506109f660048036038101908080359060200190929190803590602001909291905050506130c4565b6040518082815260200191505060405180910390f35b348015610a1857600080fd5b50610a4b6004803603810190808035906020019092919080359060200190929190803590602001909291905050506130e9565b60405180848152602001838152602001826003811115610a6757fe5b60ff168152602001935050505060405180910390f35b348015610a8957600080fd5b50610a9261313a565b005b348015610aa057600080fd5b50610aa96133bb565b6040518082815260200191505060405180910390f35b348015610acb57600080fd5b50610aee60048036038101908080356000191690602001909291905050506133c2565b005b348015610afc57600080fd5b50610b056139a8565b6040518080602001828103825283818151815260200191508051906020019060200280838360005b83811015610b48578082015181840152602081019050610b2d565b505050509050019250505060405180910390f35b606281565b600360009054906101000a900473ffffffffffffffffffffffffffffffffffffffff1673ffffffffffffffffffffffffffffffffffffffff163373ffffffffffffffffffffffffffffffffffffffff16141515610c26576040517f08c379a000000000000000000000000000000000000000000000000000000000815260040180806020018281038252600a8152602001807f4f6e776572204f6e6c790000000000000000000000000000000000000000000081525060200191505060405180910390fd5b6008600082815260200190815260200160002060009054906101000a900460ff16151515610cbc576040517f08c379a00000000000000000000000000000000000000000000000000000000081526004018080602001828103825260148152602001807f416d6f756e7420616c726561647920657869737400000000000000000000000081525060200191505060405180910390fd5b600681908060018154018082558091505090600182039060005260206000200160009091929091909150555060016008600083815260200190815260200160002060006101000a81548160ff02191690831515021790555050565b60003073ffffffffffffffffffffffffffffffffffffffff1631905090565b6000610d40614fe4565b339150600c60008373ffffffffffffffffffffffffffffffffffffffff1673ffffffffffffffffffffffffffffffffffffffff1681526020019081526020016000206000016060604051908101604052908160008201548152602001600182015481526020016002820154815250509050600380811115610dbd57fe5b610dc5612209565b6003811115610dd057fe5b141515610e6b576040517f08c379a000000000000000000000000000000000000000000000000000000000815260040180806020018281038252602a8152602001807f63757272656e7420726f6f6d2073746174652069736e742077616974696e672081526020017f666f722072616e646f6d0000000000000000000000000000000000000000000081525060400191505060405180910390fd5b60026004811115610e7857fe5b600c60008473ffffffffffffffffffffffffffffffffffffffff1673ffffffffffffffffffffffffffffffffffffffff16815260200190815260200160002060030160009054906101000a900460ff166004811115610ed357fe5b141515610f6e576040517f08c379a00000000000000000000000000000000000000000000000000000000081526004018080602001828103825260358152602001807f706c61796572206469646e742073656e642068617368206265666f7265206f7281526020017f206661696c6564206f6e206c61737420726f756e64000000000000000000000081525060400191505060405180910390fd5b610f7781613a00565b15610fed576004600c60008473ffffffffffffffffffffffffffffffffffffffff1673ffffffffffffffffffffffffffffffffffffffff16815260200190815260200160002060030160006101000a81548160ff02191690836004811115610fdb57fe5b0217905550610fe861298d565b61122b565b611041610ff984613a63565b600c60008573ffffffffffffffffffffffffffffffffffffffff1673ffffffffffffffffffffffffffffffffffffffff16815260200190815260200160002060040154613aa7565b15156110b0576004600c60008473ffffffffffffffffffffffffffffffffffffffff1673ffffffffffffffffffffffffffffffffffffffff16815260200190815260200160002060030160006101000a81548160ff021916908360048111156110a657fe5b0217905550611115565b6003600c60008473ffffffffffffffffffffffffffffffffffffffff1673ffffffffffffffffffffffffffffffffffffffff16815260200190815260200160002060030160006101000a81548160ff0219169083600481111561110f57fe5b02179055505b600b6000826020015181526020019081526020016000206000826000015181526020019081526020016000206000826040015181526020019081526020016000206002016000815480929190600101919050555082600c60008473ffffffffffffffffffffffffffffffffffffffff1673ffffffffffffffffffffffffffffffffffffffff168152602001908152602001600020600501819055507f565a56bf67edf9efdc46dc20230f0d91518f9b39ec94a54a2ef8442e5cee8cb882604051808273ffffffffffffffffffffffffffffffffffffffff1673ffffffffffffffffffffffffffffffffffffffff16815260200191505060405180910390a161121c81613b1e565b1561122a5761122961298d565b5b5b505050565b6000806000806000600481111561124357fe5b600c60003373ffffffffffffffffffffffffffffffffffffffff1673ffffffffffffffffffffffffffffffffffffffff16815260200190815260200160002060030160009054906101000a900460ff16600481111561129e57fe5b14151515611314576040517f08c379a000000000000000000000000000000000000000000000000000000000815260040180806020018281038252601a8152602001807f706c61796572206e6f74206a6f696e656420616e7920726f6f6d00000000000081525060200191505060405180910390fd5b600c60003373ffffffffffffffffffffffffffffffffffffffff1673ffffffffffffffffffffffffffffffffffffffff168152602001908152602001600020600001600101549250600c60003373ffffffffffffffffffffffffffffffffffffffff1673ffffffffffffffffffffffffffffffffffffffff168152602001908152602001600020600001600001549150600c60003373ffffffffffffffffffffffffffffffffffffffff1673ffffffffffffffffffffffffffffffffffffffff168152602001908152602001600020600001600201549050600b60008481526020019081526020016000206000838152602001908152602001600020600082815260200190815260200160002060000180549050935050505090565b600260009054906101000a900473ffffffffffffffffffffffffffffffffffffffff1673ffffffffffffffffffffffffffffffffffffffff166108fc6114986000543073ffffffffffffffffffffffffffffffffffffffff1631613bb590919063ffffffff16565b9081150290604051600060405180830381858888f193505050501580156114c3573d6000803e3d6000fd5b50565b6114ce6116ba565b1515611542576040517f08c379a000000000000000000000000000000000000000000000000000000000815260040180806020018281038252601a8152602001807f526f6f6d207374617465206d757374206265206578706972656400000000000081525060200191505060405180910390fd5b6002600381111561154f57fe5b611557612209565b600381111561156257fe5b14156115e1576115dc600c60003373ffffffffffffffffffffffffffffffffffffffff1673ffffffffffffffffffffffffffffffffffffffff168152602001908152602001600020600001606060405190810160405290816000820154815260200160018201548152602001600282015481525050613bce565b6115ea565b6115e961298d565b5b565b60055481565b6060600b6000858152602001908152602001600020600084815260200190815260200160002060008381526020019081526020016000206000018054806020026020016040519081016040528092919081815260200182805480156116ac57602002820191906000526020600020905b8160009054906101000a900473ffffffffffffffffffffffffffffffffffffffff1673ffffffffffffffffffffffffffffffffffffffff1681526020019060010190808311611662575b505050505090509392505050565b60008060048111156116c857fe5b600c60003373ffffffffffffffffffffffffffffffffffffffff1673ffffffffffffffffffffffffffffffffffffffff16815260200190815260200160002060030160009054906101000a900460ff16600481111561172357fe5b1415801561174f57506001600381111561173957fe5b611741612209565b600381111561174c57fe5b14155b80156117cb57506117ca600c60003373ffffffffffffffffffffffffffffffffffffffff1673ffffffffffffffffffffffffffffffffffffffff168152602001908152602001600020600001606060405190810160405290816000820154815260200160018201548152602001600282015481525050613a00565b5b905090565b6060600680548060200260200160405190810160405280929190818152602001828054801561181e57602002820191906000526020600020905b81548152602001906001019080831161180a575b5050505050905090565b606281565b60068181548110151561183c57fe5b906000526020600020016000915090505481565b600c60205280600052604060002060009150905080600001606060405190810160405290816000820154815260200160018201548152602001600282015481525050908060030160009054906101000a900460ff16908060040154908060050154908060060154905085565b60015481565b60096020528060005260406000206000915054906101000a900460ff1681565b601481565b6000611900600054600154613bb590919063ffffffff16565b905090565b600360009054906101000a900473ffffffffffffffffffffffffffffffffffffffff1673ffffffffffffffffffffffffffffffffffffffff163373ffffffffffffffffffffffffffffffffffffffff161415156119ca576040517f08c379a000000000000000000000000000000000000000000000000000000000815260040180806020018281038252600a8152602001807f4f6e776572204f6e6c790000000000000000000000000000000000000000000081525060200191505060405180910390fd5b6119d46001610b61565b6119de6002610b61565b6119e86005610b61565b6119f26001612ddb565b6119fc6002612ddb565b611a066003612ddb565b565b6000600c60003373ffffffffffffffffffffffffffffffffffffffff1673ffffffffffffffffffffffffffffffffffffffff16815260200190815260200160002060030160009054906101000a900460ff16905090565b60086020528060005260406000206000915054906101000a900460ff1681565b600260009054906101000a900473ffffffffffffffffffffffffffffffffffffffff1681565b600781815481101515611ab457fe5b906000526020600020016000915090505481565b6000600a6000848152602001908152602001600020600083815260200190815260200160002054905092915050565b60006008600084815260200190815260200160002060009054906101000a900460ff161515611b8e576040517f08c379a00000000000000000000000000000000000000000000000000000000081526004018080602001828103825260198152602001807f7468697320616d6f756e7420697320756e6176616961626c650000000000000081525060200191505060405180910390fd5b6009600083815260200190815260200160002060009054906101000a900460ff161515611c23576040517f08c379a00000000000000000000000000000000000000000000000000000000081526004018080602001828103825260198152602001807f7468697320666163746f7220697320756e6176616961626c650000000000000081525060200191505060405180910390fd5b611c2c83613d1d565b3410151515611ca3576040517f08c379a000000000000000000000000000000000000000000000000000000000815260040180806020018281038252601e8152602001807f73656e7420616d6f756e74206e6f7420656e6f75676820746f206a6f696e000081525060200191505060405180910390fd5b611cad8383613d38565b9050611cba838383612413565b505050565b60008060006004811115611ccf57fe5b600c60003373ffffffffffffffffffffffffffffffffffffffff1673ffffffffffffffffffffffffffffffffffffffff16815260200190815260200160002060030160009054906101000a900460ff166004811115611d2a57fe5b14151515611dc6576040517f08c379a00000000000000000000000000000000000000000000000000000000081526004018080602001828103825260238152602001807f706c61796572206e6f74206a6f696e656420616e7920726f6f6d20746f206c6581526020017f617665000000000000000000000000000000000000000000000000000000000081525060400191505060405180910390fd5b600c60003373ffffffffffffffffffffffffffffffffffffffff1673ffffffffffffffffffffffffffffffffffffffff168152602001908152602001600020600001915060016003811115611e1757fe5b611e1f612209565b6003811115611e2a57fe5b141515611ec5576040517f08c379a000000000000000000000000000000000000000000000000000000000815260040180806020018281038252602b8152602001807f63757272656e7420726f6f6d2073746174652069736e742077616974696e672081526020017f666f7220706c617965727300000000000000000000000000000000000000000081525060400191505060405180910390fd5b611ef86062611eea6064611edc8660010154613d1d565b613f2290919063ffffffff16565b613f3d90919063ffffffff16565b90503073ffffffffffffffffffffffffffffffffffffffff16318111151515611faf576040517f08c379a000000000000000000000000000000000000000000000000000000000815260040180806020018281038252602c8152602001807f636f6e74726163742077616c6c657420646f65736e74206861766520656e6f7581526020017f676820746f20726566756e64000000000000000000000000000000000000000081525060400191505060405180910390fd5b611fe282606060405190810160405290816000820154815260200160018201548152602001600282015481525050613f70565b611ff781600154613bb590919063ffffffff16565b6001819055503373ffffffffffffffffffffffffffffffffffffffff166108fc829081150290604051600060405180830381858888f19350505050158015612043573d6000803e3d6000fd5b507f09defe0bdb8a1b4ee8fe9095fba7b88c1c154139a41abb1018b24b2dd2c574c33382604051808373ffffffffffffffffffffffffffffffffffffffff1673ffffffffffffffffffffffffffffffffffffffff1681526020018281526020019250505060405180910390a15050565b60008060048111156120c157fe5b600c60003373ffffffffffffffffffffffffffffffffffffffff1673ffffffffffffffffffffffffffffffffffffffff16815260200190815260200160002060030160009054906101000a900460ff16600481111561211c57fe5b14151515612192576040517f08c379a000000000000000000000000000000000000000000000000000000000815260040180806020018281038252601a8152602001807f706c61796572206e6f74206a6f696e656420616e7920726f6f6d00000000000081525060200191505060405180910390fd5b600c60003373ffffffffffffffffffffffffffffffffffffffff1673ffffffffffffffffffffffffffffffffffffffff16815260200190815260200160002060000160020154905090565b600360009054906101000a900473ffffffffffffffffffffffffffffffffffffffff1681565b60045481565b6000806000806000600481111561221c57fe5b600c60003373ffffffffffffffffffffffffffffffffffffffff1673ffffffffffffffffffffffffffffffffffffffff16815260200190815260200160002060030160009054906101000a900460ff16600481111561227757fe5b141515156122ed576040517f08c379a000000000000000000000000000000000000000000000000000000000815260040180806020018281038252601a8152602001807f706c61796572206e6f74206a6f696e656420616e7920726f6f6d00000000000081525060200191505060405180910390fd5b600c60003373ffffffffffffffffffffffffffffffffffffffff1673ffffffffffffffffffffffffffffffffffffffff168152602001908152602001600020600001600101549250600c60003373ffffffffffffffffffffffffffffffffffffffff1673ffffffffffffffffffffffffffffffffffffffff168152602001908152602001600020600001600001549150600c60003373ffffffffffffffffffffffffffffffffffffffff1673ffffffffffffffffffffffffffffffffffffffff168152602001908152602001600020600001600201549050600b60008481526020019081526020016000206000838152602001908152602001600020600082815260200190815260200160002060030160009054906101000a900460ff16935050505090565b600061241d614fe4565b600033925061242b86613d1d565b34101515156124a2576040517f08c379a000000000000000000000000000000000000000000000000000000000815260040180806020018281038252601e8152602001807f73656e7420616d6f756e74206e6f7420656e6f75676820746f206a6f696e000081525060200191505060405180910390fd5b600060048111156124af57fe5b600c60003373ffffffffffffffffffffffffffffffffffffffff1673ffffffffffffffffffffffffffffffffffffffff16815260200190815260200160002060030160009054906101000a900460ff16600481111561250a57fe5b14151561257f576040517f08c379a000000000000000000000000000000000000000000000000000000000815260040180806020018281038252601c8152602001807f706c6179657220616c7265616479206a6f696e6564206120726f6f6d0000000081525060200191505060405180910390fd5b6001600381111561258c57fe5b600b60008881526020019081526020016000206000878152602001908152602001600020600086815260200190815260200160002060030160009054906101000a900460ff1660038111156125dd57fe5b141515612678576040517f08c379a000000000000000000000000000000000000000000000000000000000815260040180806020018281038252602b8152602001807f63757272656e7420726f6f6d2073746174652069736e742077616974696e672081526020017f666f7220706c617965727300000000000000000000000000000000000000000081525060400191505060405180910390fd5b6001600c60008573ffffffffffffffffffffffffffffffffffffffff1673ffffffffffffffffffffffffffffffffffffffff16815260200190815260200160002060030160006101000a81548160ff021916908360048111156126d757fe5b021790555060606040519081016040528086815260200187815260200185815250915081600c60008573ffffffffffffffffffffffffffffffffffffffff1673ffffffffffffffffffffffffffffffffffffffff168152602001908152602001600020600001600082015181600001556020820151816001015560408201518160020155905050600b60008781526020019081526020016000206000868152602001908152602001600020600085815260200190815260200160002060000180549050905080600c60008573ffffffffffffffffffffffffffffffffffffffff1673ffffffffffffffffffffffffffffffffffffffff16815260200190815260200160002060060181905550600b6000878152602001908152602001600020600086815260200190815260200160002060008581526020019081526020016000206000018390806001815401808255809150509060018203906000526020600020016000909192909190916101000a81548173ffffffffffffffffffffffffffffffffffffffff021916908373ffffffffffffffffffffffffffffffffffffffff160217905550507f85fdd05cdee4af169ec918919c14748135de479595be3d0ad5aee64db1f5ca80838583604051808473ffffffffffffffffffffffffffffffffffffffff1673ffffffffffffffffffffffffffffffffffffffff168152602001838152602001828152602001935050505060405180910390a161290f6128fe87613d1d565b6000546141cf90919063ffffffff16565b60008190555061293261292187613d1d565b6001546141cf90919063ffffffff16565b60018190555084600b60008881526020019081526020016000206000878152602001908152602001600020600086815260200190815260200160002060000180549050141561298557612984826141ed565b5b505050505050565b6000806000600481111561299d57fe5b600c60003373ffffffffffffffffffffffffffffffffffffffff1673ffffffffffffffffffffffffffffffffffffffff16815260200190815260200160002060030160009054906101000a900460ff1660048111156129f857fe5b14151515612a6e576040517f08c379a000000000000000000000000000000000000000000000000000000000815260040180806020018281038252601a8152602001807f506c61796572206e6f74206a6f696e656420616e7920726f6f6d00000000000081525060200191505060405180910390fd5b339150600c60008373ffffffffffffffffffffffffffffffffffffffff1673ffffffffffffffffffffffffffffffffffffffff1681526020019081526020016000206000019050600380811115612ac157fe5b600b60008360010154815260200190815260200160002060008360000154815260200190815260200160002060008360020154815260200190815260200160002060030160009054906101000a900460ff166003811115612b1e57fe5b141515612b93576040517f08c379a000000000000000000000000000000000000000000000000000000000815260040180806020018281038252601e8152602001807f7374696c6c2077616974696e6720666f72206d6f726520706c6179657273000081525060200191505060405180910390fd5b612bc681606060405190810160405290816000820154815260200160018201548152602001600282015481525050613b1e565b80612c005750612bff81606060405190810160405290816000820154815260200160018201548152602001600282015481525050613a00565b5b1515612c74576040517f08c379a000000000000000000000000000000000000000000000000000000000815260040180806020018281038252601e8152602001807f726f6f6d206e6f7420726561647920746f206368616e6765207374617465000081525060200191505060405180910390fd5b612ca78160606040519081016040529081600082015481526020016001820154815260200160028201548152505061433c565b5050565b60005481565b6000806004811115612cbf57fe5b600c60003373ffffffffffffffffffffffffffffffffffffffff1673ffffffffffffffffffffffffffffffffffffffff16815260200190815260200160002060030160009054906101000a900460ff166004811115612d1a57fe5b14151515612d90576040517f08c379a000000000000000000000000000000000000000000000000000000000815260040180806020018281038252601a8152602001807f706c61796572206e6f74206a6f696e656420616e7920726f6f6d00000000000081525060200191505060405180910390fd5b600c60003373ffffffffffffffffffffffffffffffffffffffff1673ffffffffffffffffffffffffffffffffffffffff16815260200190815260200160002060000160010154905090565b600360009054906101000a900473ffffffffffffffffffffffffffffffffffffffff1673ffffffffffffffffffffffffffffffffffffffff163373ffffffffffffffffffffffffffffffffffffffff16141515612ea0576040517f08c379a000000000000000000000000000000000000000000000000000000000815260040180806020018281038252600a8152602001807f4f6e776572204f6e6c790000000000000000000000000000000000000000000081525060200191505060405180910390fd5b600960008260020a815260200190815260200160002060009054906101000a900460ff16151515612f39576040517f08c379a00000000000000000000000000000000000000000000000000000000081526004018080602001828103825260148152602001807f466163746f7220616c726561647920657869737400000000000000000000000081525060200191505060405180910390fd5b60078160020a90806001815401808255809150509060018203906000526020600020016000909192909190915055506001600960008360020a815260200190815260200160002060006101000a81548160ff02191690831515021790555050565b6000806004811115612fa857fe5b600c60003373ffffffffffffffffffffffffffffffffffffffff1673ffffffffffffffffffffffffffffffffffffffff16815260200190815260200160002060030160009054906101000a900460ff16600481111561300357fe5b14151515613079576040517f08c379a000000000000000000000000000000000000000000000000000000000815260040180806020018281038252601a8152602001807f706c61796572206e6f74206a6f696e656420616e7920726f6f6d00000000000081525060200191505060405180910390fd5b600c60003373ffffffffffffffffffffffffffffffffffffffff1673ffffffffffffffffffffffffffffffffffffffff16815260200190815260200160002060000160000154905090565b600a602052816000526040600020602052806000526040600020600091509150505481565b600b60205282600052604060002060205281600052604060002060205280600052604060002060009250925050508060010154908060020154908060030160009054906101000a900460ff16905083565b613142614fe4565b6000806000806000806000600360009054906101000a900473ffffffffffffffffffffffffffffffffffffffff1673ffffffffffffffffffffffffffffffffffffffff163373ffffffffffffffffffffffffffffffffffffffff16141515613212576040517f08c379a000000000000000000000000000000000000000000000000000000000815260040180806020018281038252600a8152602001807f4f6e776572204f6e6c790000000000000000000000000000000000000000000081525060200191505060405180910390fd5b600096505b6006805490508710156133b157600095505b6007805490508610156133a45760068781548110151561324557fe5b9060005260206000200154945060078681548110151561326157fe5b90600052602060002001549350600092505b600a600086815260200190815260200160002060008581526020019081526020016000205483101561339757600b600086815260200190815260200160002060008581526020019081526020016000206000848152602001908152602001600020600101549150600160038111156132e757fe5b600b60008781526020019081526020016000206000868152602001908152602001600020600085815260200190815260200160002060030160009054906101000a900460ff16600381111561333857fe5b1415905080801561335d57506201518061335b8342613bb590919063ffffffff16565b115b1561338a5784886020018181525050838860000181815250508288604001818152505061338988614533565b5b8280600101935050613273565b8580600101965050613229565b8680600101975050613217565b5050505050505050565b6201518081565b600080339150600260038111156133d557fe5b6133dd612209565b60038111156133e857fe5b141515613483576040517f08c379a00000000000000000000000000000000000000000000000000000000081526004018080602001828103825260298152602001807f63757272656e7420726f6f6d207374617465202069736e742077616974696e6781526020017f20666f722068617368000000000000000000000000000000000000000000000081525060400191505060405180910390fd5b6002600481111561349057fe5b600c60008473ffffffffffffffffffffffffffffffffffffffff1673ffffffffffffffffffffffffffffffffffffffff16815260200190815260200160002060030160009054906101000a900460ff1660048111156134eb57fe5b14151515613561576040517f08c379a00000000000000000000000000000000000000000000000000000000081526004018080602001828103825260188152602001807f706c617965722073656e74206861736820616c7265616479000000000000000081525060200191505060405180910390fd5b60048081111561356d57fe5b600c60008473ffffffffffffffffffffffffffffffffffffffff1673ffffffffffffffffffffffffffffffffffffffff16815260200190815260200160002060030160009054906101000a900460ff1660048111156135c857fe5b1415151561363e576040517f08c379a00000000000000000000000000000000000000000000000000000000081526004018080602001828103825260188152602001807f706c61796572206661696c6564206c61737420726f756e64000000000000000081525060200191505060405180910390fd5b6000600481111561364b57fe5b600c60008473ffffffffffffffffffffffffffffffffffffffff1673ffffffffffffffffffffffffffffffffffffffff16815260200190815260200160002060030160009054906101000a900460ff1660048111156136a657fe5b1415151561371c576040517f08c379a000000000000000000000000000000000000000000000000000000000815260040180806020018281038252601a8152602001807f706c61796572206e6f74206a6f696e656420616e7920726f6f6d00000000000081525060200191505060405180910390fd5b600c60008373ffffffffffffffffffffffffffffffffffffffff1673ffffffffffffffffffffffffffffffffffffffff168152602001908152602001600020600001905061379381606060405190810160405290816000820154815260200160018201548152602001600282015481525050613a00565b156137d0576137cb81606060405190810160405290816000820154815260200160018201548152602001600282015481525050613bce565b6139a3565b82600c60008473ffffffffffffffffffffffffffffffffffffffff1673ffffffffffffffffffffffffffffffffffffffff16815260200190815260200160002060040181600019169055506002600c60008473ffffffffffffffffffffffffffffffffffffffff1673ffffffffffffffffffffffffffffffffffffffff16815260200190815260200160002060030160006101000a81548160ff0219169083600481111561387a57fe5b0217905550600b600082600101548152602001908152602001600020600082600001548152602001908152602001600020600082600201548152602001908152602001600020600201600081548092919060010191905055507f47e7edb88cc6c003cd8e7bc7e0085d1b68beec1cc2d2227f97893df0864c682f82604051808273ffffffffffffffffffffffffffffffffffffffff1673ffffffffffffffffffffffffffffffffffffffff16815260200191505060405180910390a161396981606060405190810160405290816000820154815260200160018201548152602001600282015481525050613b1e565b156139a2576139a181606060405190810160405290816000820154815260200160018201548152602001600282015481525050613bce565b5b5b505050565b606060078054806020026020016040519081016040528092919081815260200182805480156139f657602002820191906000526020600020905b8154815260200190600101908083116139e2575b5050505050905090565b60006014613a5b600b6000856020015181526020019081526020016000206000856000015181526020019081526020016000206000856040015181526020019081526020016000206001015442613bb590919063ffffffff16565b119050919050565b606060206040519080825280601f01601f191660200182016040528015613a995781602001602082028038833980820191505090505b509050816020820152919050565b60008160001916836040518082805190602001908083835b602083101515613ae45780518252602082019150602081019050602083039250613abf565b6001836020036101000a03801982511681845116808217855250505050505090500191505060405180910390206000191614905092915050565b6000600b60008360200151815260200190815260200160002060008360000151815260200190815260200160002060008360400151815260200190815260200160002060000180549050600b60008460200151815260200190815260200160002060008460000151815260200190815260200160002060008460400151815260200190815260200160002060020154149050919050565b6000828211151515613bc357fe5b818303905092915050565b6000600b6000836020015181526020019081526020016000206000836000015181526020019081526020016000206000836040015181526020019081526020016000206002018190555042600b600083602001518152602001908152602001600020600083600001518152602001908152602001600020600083604001518152602001908152602001600020600101819055506003600b60008360200151815260200190815260200160002060008360000151815260200190815260200160002060008360400151815260200190815260200160002060030160006101000a81548160ff02191690836003811115613cc257fe5b02179055507fafd85dbf507fa41b027f2b33b474e095676e8ed0b699812f0d55aaf3da915d6081602001518260000151836040015160405180848152602001838152602001828152602001935050505060405180910390a150565b6000613d3182670de0b6b3a7640000613f3d565b9050919050565b600080613d43615006565b600091505b600a6000868152602001908152602001600020600085815260200190815260200160002054821015613ded5760016003811115613d8157fe5b600b60008781526020019081526020016000206000868152602001908152602001600020600084815260200190815260200160002060030160009054906101000a900460ff166003811115613dd257fe5b1415613de057819250613f1a565b8180600101925050613d48565b6080604051908101604052806000604051908082528060200260200182016040528015613e295781602001602082028038833980820191505090505b508152602001600081526020016000815260200160016003811115613e4a57fe5b815250905080600b6000878152602001908152602001600020600086815260200190815260200160002060008481526020019081526020016000206000820151816000019080519060200190613ea192919061503a565b50602082015181600101556040820151816002015560608201518160030160006101000a81548160ff02191690836003811115613eda57fe5b0217905550905050600a60008681526020019081526020016000206000858152602001908152602001600020600081548092919060010191905055508192505b505092915050565b6000808284811515613f3057fe5b0490508091505092915050565b60008082840290506000841480613f5e5750828482811515613f5b57fe5b04145b1515613f6657fe5b8091505092915050565b6000806000600c60003373ffffffffffffffffffffffffffffffffffffffff1673ffffffffffffffffffffffffffffffffffffffff168152602001908152602001600020600601549250600b600085602001518152602001908152602001600020600085600001518152602001908152602001600020600085604001518152602001908152602001600020600001805490509150600b6000856020015181526020019081526020016000206000856000015181526020019081526020016000206000856040015181526020019081526020016000206000016001830381548110151561405857fe5b9060005260206000200160009054906101000a900473ffffffffffffffffffffffffffffffffffffffff16905080600b600086602001518152602001908152602001600020600086600001518152602001908152602001600020600086604001518152602001908152602001600020600001848154811015156140d757fe5b9060005260206000200160006101000a81548173ffffffffffffffffffffffffffffffffffffffff021916908373ffffffffffffffffffffffffffffffffffffffff16021790555082600c60008373ffffffffffffffffffffffffffffffffffffffff1673ffffffffffffffffffffffffffffffffffffffff16815260200190815260200160002060060181905550600b6000856020015181526020019081526020016000206000856000015181526020019081526020016000206000856040015181526020019081526020016000206000018054809190600190036141bd91906150c4565b506141c9336000614685565b50505050565b60008082840190508381101515156141e357fe5b8091505092915050565b6000600b6000836020015181526020019081526020016000206000836000015181526020019081526020016000206000836040015181526020019081526020016000206002018190555042600b600083602001518152602001908152602001600020600083600001518152602001908152602001600020600083604001518152602001908152602001600020600101819055506002600b60008360200151815260200190815260200160002060008360000151815260200190815260200160002060008360400151815260200190815260200160002060030160006101000a81548160ff021916908360038111156142e157fe5b02179055507f6cb7f482ac8d7d5149106209dc668b95f89b8961854a8b231e0f9e6a3c4ff1ca81602001518260000151836040015160405180848152602001838152602001828152602001935050505060405180910390a150565b6000806000600b600085602001518152602001908152602001600020600085600001518152602001908152602001600020600085604001518152602001908152602001600020600001805490509250600091505b828210156144a8576143a284836147bf565b905080600b6000866020015181526020019081526020016000206000866000015181526020019081526020016000206000866040015181526020019081526020016000206000016002848115156143f557fe5b0481548110151561440257fe5b9060005260206000200160006101000a81548173ffffffffffffffffffffffffffffffffffffffff021916908373ffffffffffffffffffffffffffffffffffffffff16021790555060028281151561445657fe5b04600c60008373ffffffffffffffffffffffffffffffffffffffff1673ffffffffffffffffffffffffffffffffffffffff16815260200190815260200160002060060181905550600282019150614390565b6002600b6000866020015181526020019081526020016000206000866000015181526020019081526020016000206000866040015181526020019081526020016000206000018181805490508115156144fd57fe5b0491508161450b91906150c4565b5060028314156145235761451e84614c63565b61452d565b61452c846141ed565b5b50505050565b600080600b6000846020015181526020019081526020016000206000846000015181526020019081526020016000206000846040015181526020019081526020016000206000018054905091506001820390505b60008110151561462557614617600b600085602001518152602001908152602001600020600085600001518152602001908152602001600020600085604001518152602001908152602001600020600001828154811015156145e557fe5b9060005260206000200160009054906101000a900473ffffffffffffffffffffffffffffffffffffffff166000614685565b808060019003915050614587565b6000600b6000856020015181526020019081526020016000206000856000015181526020019081526020016000206000856040015181526020019081526020016000206000018161467691906150c4565b5061468083614ee8565b505050565b6000600c60008473ffffffffffffffffffffffffffffffffffffffff1673ffffffffffffffffffffffffffffffffffffffff16815260200190815260200160002060030160006101000a81548160ff021916908360048111156146e457fe5b021790555061474b61473a600c60008573ffffffffffffffffffffffffffffffffffffffff1673ffffffffffffffffffffffffffffffffffffffff16815260200190815260200160002060000160010154613d1d565b600054613bb590919063ffffffff16565b60008190555080156147bb577f5480a3efeda8eee0f50ba729734b299f7bde610d069a01b6817d2d84fa8bdad482604051808273ffffffffffffffffffffffffffffffffffffffff1673ffffffffffffffffffffffffffffffffffffffff16815260200191505060405180910390a15b5050565b6000806000806000600b6000886020015181526020019081526020016000206000886000015181526020019081526020016000206000886040015181526020019081526020016000206000018681548110151561481857fe5b9060005260206000200160009054906101000a900473ffffffffffffffffffffffffffffffffffffffff169350600b6000886020015181526020019081526020016000206000886000015181526020019081526020016000206000886040015181526020019081526020016000206000016001870181548110151561489957fe5b9060005260206000200160009054906101000a900473ffffffffffffffffffffffffffffffffffffffff1692508273ffffffffffffffffffffffffffffffffffffffff168473ffffffffffffffffffffffffffffffffffffffff1614151515614990576040517f08c379a00000000000000000000000000000000000000000000000000000000081526004018080602001828103825260268152602001807f74776f20636f6d70617265642061646472657373206d7573742062652064696681526020017f666572656e74000000000000000000000000000000000000000000000000000081525060400191505060405180910390fd5b60009150600360048111156149a157fe5b600c60008673ffffffffffffffffffffffffffffffffffffffff1673ffffffffffffffffffffffffffffffffffffffff16815260200190815260200160002060030160009054906101000a900460ff1660048111156149fc57fe5b141515614a07578291505b60036004811115614a1457fe5b600c60008573ffffffffffffffffffffffffffffffffffffffff1673ffffffffffffffffffffffffffffffffffffffff16815260200190815260200160002060030160009054906101000a900460ff166004811115614a6f57fe5b141515614a7a578391505b60008273ffffffffffffffffffffffffffffffffffffffff161415614b3c5782915060006002600c60008673ffffffffffffffffffffffffffffffffffffffff1673ffffffffffffffffffffffffffffffffffffffff16815260200190815260200160002060050154600c60008873ffffffffffffffffffffffffffffffffffffffff1673ffffffffffffffffffffffffffffffffffffffff1681526020019081526020016000206005015401811515614b3057fe5b061415614b3b578391505b5b8390508373ffffffffffffffffffffffffffffffffffffffff168273ffffffffffffffffffffffffffffffffffffffff161415614b77578290505b614b82816001614685565b60036004811115614b8f57fe5b600c60008473ffffffffffffffffffffffffffffffffffffffff1673ffffffffffffffffffffffffffffffffffffffff16815260200190815260200160002060030160009054906101000a900460ff166004811115614bea57fe5b141515614c56576004600c60008473ffffffffffffffffffffffffffffffffffffffff1673ffffffffffffffffffffffffffffffffffffffff16815260200190815260200160002060030160006101000a81548160ff02191690836004811115614c5057fe5b02179055505b8194505050505092915050565b600080600b6000846020015181526020019081526020016000206000846000015181526020019081526020016000206000846040015181526020019081526020016000206000016000815481101515614cb857fe5b9060005260206000200160009054906101000a900473ffffffffffffffffffffffffffffffffffffffff16915060036004811115614cf257fe5b600c60008473ffffffffffffffffffffffffffffffffffffffff1673ffffffffffffffffffffffffffffffffffffffff16815260200190815260200160002060030160009054906101000a900460ff166004811115614d4d57fe5b141515614d6457614d5f826001614685565b614e88565b614dad6062614d9f6064614d91614d8c88600001518960200151613f3d90919063ffffffff16565b613d1d565b613f2290919063ffffffff16565b613f3d90919063ffffffff16565b9050614dc481600154613bb590919063ffffffff16565b600181905550614dd5826000614685565b8173ffffffffffffffffffffffffffffffffffffffff166108fc829081150290604051600060405180830381858888f19350505050158015614e1b573d6000803e3d6000fd5b507fdab053f2eedec2c57c67d5c02256a1ccf0fe97c1e5a5b8abe42f4a747dd8889a8282604051808373ffffffffffffffffffffffffffffffffffffffff1673ffffffffffffffffffffffffffffffffffffffff1681526020018281526020019250505060405180910390a15b6000600b60008560200151815260200190815260200160002060008560000151815260200190815260200160002060008560400151815260200190815260200160002060000181614ed991906150c4565b50614ee383614ee8565b505050565b6000600b6000836020015181526020019081526020016000206000836000015181526020019081526020016000206000836040015181526020019081526020016000206002018190555042600b600083602001518152602001908152602001600020600083600001518152602001908152602001600020600083604001518152602001908152602001600020600101819055506001600b60008360200151815260200190815260200160002060008360000151815260200190815260200160002060008360400151815260200190815260200160002060030160006101000a81548160ff02191690836003811115614fdc57fe5b021790555050565b6060604051908101604052806000815260200160008152602001600081525090565b6080604051908101604052806060815260200160008152602001600081526020016000600381111561503457fe5b81525090565b8280548282559060005260206000209081019282156150b3579160200282015b828111156150b25782518260006101000a81548173ffffffffffffffffffffffffffffffffffffffff021916908373ffffffffffffffffffffffffffffffffffffffff1602179055509160200191906001019061505a565b5b5090506150c091906150f0565b5090565b8154818355818111156150eb578183600052602060002091820191016150ea9190615133565b5b505050565b61513091905b8082111561512c57600081816101000a81549073ffffffffffffffffffffffffffffffffffffffff0219169055506001016150f6565b5090565b90565b61515591905b80821115615151576000816000905550600101615139565b5090565b905600a165627a7a72305820ebee65a71032caee395952e8881061417e4e63f12ccf24e70936bc49d167d8650029",
  "source": "pragma solidity ^0.4.24;\r\n\r\nimport \"./SafeMath.sol\";\r\n\r\ncontract BinaryBetting {\r\n    using SafeMath for uint256;\r\n    \r\n    uint256 public constant DICE_DURATION= 20;\r\n    uint256 public constant REFUND_PERCENT= 98;\r\n    uint256 public constant REWARD_PERCENT= 98;\r\n    uint256 public constant INACTIVE_DURATION= 60*60*24; //24 hours inactive room, locked but nobody calls getWinner() \r\n\r\n    uint256 public pendingAmount;\r\n    uint256 public totalIncome; //since contract deployed\r\n\r\n    address public bank;\r\n\r\n    enum PlayerState {\r\n        Free,\r\n        Joined,\r\n        HashSent,\r\n        RandomSent,\r\n        Failed\r\n    }\r\n    \r\n    enum RoomState {\r\n        NotCreated,\r\n        WaitingPlayer,\r\n        WaitingHash,\r\n        WaitingRandom\r\n    }\r\n\r\n    struct RoomAtribute {\r\n        address[] playerAddress;\r\n        uint256 endTime;\r\n        uint256 count;\r\n        RoomState state;\r\n    }\r\n\r\n    struct RoomId{\r\n        uint256 factor;\r\n        uint256 amount;\r\n        uint256 id;\r\n    }\r\n\r\n    struct Player {\r\n        RoomId roomId;\r\n        PlayerState state;\r\n        bytes32 hstring;\r\n        uint256 random;\r\n        uint256 pos;\r\n    }\r\n\r\n    address public owner;\r\n\r\n    uint256 public ownerPercent;\r\n    uint256 public verifyDuration;\r\n\r\n    uint256[] public amounts;\r\n    uint256[] public factors;\r\n    \r\n    mapping(uint256 => bool) public amountExist;\r\n    mapping(uint256 => bool) public factorExist;\r\n    \r\n    mapping(uint256 => mapping(uint256 => uint256)) public roomNumber;\r\n    mapping(uint256 => mapping(uint256 => mapping(uint256 => RoomAtribute))) public room;\r\n\r\n    mapping(address => Player) public player;\r\n\r\n//Modifiers\r\n\r\n    modifier onlyOwner() {\r\n        require(msg.sender == owner, \"Onwer Only\");\r\n        _;\r\n    }\r\n    \r\n//Events\r\n    event RoomLocked(uint256 _amount, uint256 _factor, uint256 _id);\r\n    event RoomCleaned(uint256 _amount, uint256 _factor, uint256 _id);\r\n    \r\n    event JoinSuccess(address _address, uint256 _id, uint256 _pos);\r\n    event RefundSuccess(address _address,uint256 _amount);\r\n    event LeaveSuccess(address _address);\r\n    \r\n    event BadNews(address _address);\r\n    event GoodNews(address _address, uint256 _amount);\r\n    \r\n    event HashRequest(uint256 _amount, uint256 _factor, uint256 _id);\r\n    event HashSent(address _address);\r\n    \r\n    event RandomRequest(uint256 _amount, uint256 _factor, uint256 _id);\r\n    event RandomSent(address _address);\r\n    \r\n//////////////Functions\r\n    \r\n//////////////////////////////////////Owner's Functions\r\n\r\n    constructor (address _bank) public{\r\n    //constructor () public{\r\n        owner = msg.sender;\r\n        bank = _bank;\r\n        _initForAdmin();\r\n        pendingAmount = 0;\r\n        totalIncome = 0;\r\n    }\r\n\r\n//add new amount for betting\r\n    function addAmount(uint256 _amount) public onlyOwner {\r\n        require(!amountExist[_amount], \"Amount already exist\");\r\n        amounts.push(_amount);\r\n        amountExist[_amount] = true;\r\n    }\r\n\r\n//add new factor for betting\r\n    function addFactor(uint256 _factor) public onlyOwner {\r\n        require(!factorExist[2 ** _factor], \"Factor already exist\");\r\n        factors.push(2 ** _factor);\r\n        factorExist[2 ** _factor] = true;\r\n    }\r\n\r\n    function pushToBank() public  {\r\n        bank.transfer(address(this).balance.sub(pendingAmount));\r\n    }\r\n   \r\n    //clean all inactive rooms\r\n    function cleanInactiveRooms() onlyOwner  public {\r\n        RoomId memory roomId;\r\n        for (uint256 i = 0; i < amounts.length; i++)\r\n        for (uint256 j = 0; j < factors.length; j++) {\r\n            uint256 _amount = amounts[i];\r\n            uint256 _factor = factors[j];        \r\n            for (uint256 _id = 0; _id < roomNumber[_amount][_factor]; _id ++){\r\n                uint256 endTime = room[_amount][_factor][_id].endTime;\r\n                bool isLocked = room[_amount][_factor][_id].state != RoomState.WaitingPlayer;\r\n                if ((isLocked) && (now.sub(endTime) > INACTIVE_DURATION)) {\r\n                    roomId.amount = _amount;\r\n                    roomId.factor = _factor;\r\n                    roomId.id = _id;\r\n                    cleanRoom(roomId);\r\n                }\r\n            }\r\n        }\r\n    }\r\n\r\n    function getBalance() public view returns(uint256) {\r\n        return address(this).balance;\r\n    }\r\n\r\n//////////////////////////////////////Players's Functions\r\n    \r\n    function roomAsleep() public view returns (bool) {\r\n        return (player[msg.sender].state != PlayerState.Free) && \r\n            (getRoomState() != RoomState.WaitingPlayer) && \r\n            (roomStateExpired(player[msg.sender].roomId));\r\n    }\r\n\r\n    function roomWakeUp() public {\r\n        require(roomAsleep(),\"Room state must be expired\");\r\n        if (getRoomState() == RoomState.WaitingHash) {\r\n            toWaitingRandom(player[msg.sender].roomId);\r\n        } else {\r\n            activeRoundFighting();\r\n        }\r\n    }\r\n\r\n    function activeRoundFighting() public{\r\n        require(player[msg.sender].state != PlayerState.Free, \"Player not joined any room\");\r\n        address _address = msg.sender;\r\n        RoomId storage roomId = player[_address].roomId;\r\n        require(room[roomId.amount][roomId.factor][roomId.id].state == RoomState.WaitingRandom, \"still waiting for more players\");\r\n        //only if all verified or timeout\r\n        require(roomReady(roomId) || roomStateExpired(roomId), \"room not ready to change state\");\r\n        //if not enough verify for this round and time for verify passt\r\n        fighting(roomId);\r\n    }\r\n    \r\n    function sendHash(bytes32 _hstring) public {\r\n        address _address = msg.sender;\r\n        require(getRoomState() == RoomState.WaitingHash, \"current room state  isnt waiting for hash\");\r\n        require(player[_address].state != PlayerState.HashSent, \"player sent hash already\"); \r\n        require(player[_address].state != PlayerState.Failed, \"player failed last round\"); \r\n        require(player[_address].state != PlayerState.Free, \"player not joined any room\"); \r\n        \r\n        RoomId storage roomId = player[_address].roomId;\r\n        if (roomStateExpired(roomId)) {\r\n            toWaitingRandom(roomId);\r\n        } else {\r\n            player[_address].hstring = _hstring;\r\n            player[_address].state = PlayerState.HashSent;\r\n            room[roomId.amount][roomId.factor][roomId.id].count++;\r\n            emit HashSent(_address);\r\n            if (roomReady(roomId)) toWaitingRandom(roomId);\r\n        }\r\n    }\r\n    \r\n    function sendRandom(uint256 _random) public {\r\n        address _address = msg.sender;\r\n        RoomId memory roomId = player[_address].roomId;\r\n        require(getRoomState() == RoomState.WaitingRandom, \"current room state isnt waiting for random\");\r\n        require(player[_address].state == PlayerState.HashSent, \"player didnt send hash before or failed on last round\"); \r\n        \r\n        if (roomStateExpired(roomId)) {\r\n            //timeout for verify\r\n            player[_address].state = PlayerState.Failed;\r\n            activeRoundFighting();\r\n        } else {\r\n            //check random with the last sent hash (hstring)\r\n            if (!hashVerify(_random.toBytes(), player[_address].hstring)) {\r\n                player[_address].state = PlayerState.Failed;\r\n            } else player[_address].state = PlayerState.RandomSent;\r\n\r\n            room[roomId.amount][roomId.factor][roomId.id].count++;\r\n            player[_address].random = _random;\r\n            emit RandomSent(_address);\r\n            //if all verified or failed, then get round result\r\n            if (roomReady(roomId)) activeRoundFighting();\r\n        }\r\n    }\r\n    \r\n    function joinRoom(uint256 _amount, uint256 _factor, uint256 _id) public payable {\r\n        //can join direct without join joinQueue, check locked room\r\n        address _address = msg.sender;\r\n        require(msg.value >= _amount.etherToWei(), \"sent amount not enough to join\");\r\n        require(player[msg.sender].state == PlayerState.Free, \"player already joined a room\");\r\n        require(room[_amount][_factor][_id].state == RoomState.WaitingPlayer, \"current room state isnt waiting for players\");\r\n        player[_address].state = PlayerState.Joined;\r\n        RoomId memory roomId = RoomId({amount : _amount, factor : _factor , id : _id});\r\n        player[_address].roomId = roomId;\r\n        uint256 _pos = room[_amount][_factor][_id].playerAddress.length;\r\n        player[_address].pos = _pos;\r\n        room[_amount][_factor][_id].playerAddress.push(_address);\r\n        emit JoinSuccess(_address, _id, _pos);\r\n        pendingAmount = pendingAmount.add(_amount.etherToWei());\r\n        totalIncome = totalIncome.add(_amount.etherToWei());\r\n        //if room full, lock room then\r\n        if (room[_amount][_factor][_id].playerAddress.length == _factor) {\r\n            toWaitingHash(roomId);\r\n        }\r\n    }\r\n    \r\n    function joinQueue(uint256 _amount, uint256 _factor) public payable{\r\n        require(amountExist[_amount], \"this amount is unavaiable\");\r\n        require(factorExist[_factor], \"this factor is unavaiable\");\r\n        require(msg.value >= _amount.etherToWei(), \"sent amount not enough to join\");\r\n        uint256 _id = getFirstFreeRoom(_amount, _factor);\r\n        joinRoom(_amount, _factor, _id);\r\n        //if room ready to Dice, lock room and emit\r\n    }\r\n    \r\n    function leaveQueue() public {\r\n        //require(player[msg.sender].exist);\r\n        require(player[msg.sender].state != PlayerState.Free, \"player not joined any room to leave\");\r\n        RoomId storage _roomId = player[msg.sender].roomId;\r\n        require(getRoomState() == RoomState.WaitingPlayer, \"current room state isnt waiting for players\"); // Room locked, nobody can run\r\n        uint256 refundAmount = _roomId.amount.etherToWei().div(100).mul(REFUND_PERCENT);\r\n        require(refundAmount <= address(this).balance, \"contract wallet doesnt have enough to refund\");\r\n        leaveRoom(_roomId);\r\n        totalIncome = totalIncome.sub(refundAmount);\r\n        msg.sender.transfer(refundAmount);\r\n        emit RefundSuccess(msg.sender, refundAmount);\r\n    }\r\n    \r\n//////////////////////////////////////Dapps Functions to read data\r\n\r\n//get avaiable amounts\r\n    function getAmounts() public view returns(uint256[]){\r\n        return amounts;\r\n    }\r\n\r\n//get avaiable factors = number of players in room\r\n    function getFactors() public view returns(uint256[]){\r\n        return factors;\r\n    }\r\n\r\n//get number of rooms with a selected pair amount and factor\r\n    function getRoomNumber(uint256 _amount, uint256 _factor) public view returns(uint256){\r\n        return roomNumber[_amount][_factor];\r\n    }\r\n \r\n//get current room state : Not Created, Waiting -Player, -Hash, -Random\r\n    function getRoomState() public view returns(RoomState) {\r\n        require(player[msg.sender].state != PlayerState.Free, \"player not joined any room\");\r\n        uint256 _amount = player[msg.sender].roomId.amount;\r\n        uint256 _factor = player[msg.sender].roomId.factor;\r\n        uint256 _id = player[msg.sender].roomId.id;\r\n        return room[_amount][_factor][_id].state;\r\n    }\r\n\r\n//get current number of players in room, reduce a halb after every round\r\n    function getRoomRestPlayers() public view returns(uint256) {\r\n        require(player[msg.sender].state != PlayerState.Free, \"player not joined any room\");\r\n        uint256 _amount = player[msg.sender].roomId.amount;\r\n        uint256 _factor = player[msg.sender].roomId.factor;\r\n        uint256 _id = player[msg.sender].roomId.id;\r\n        return room[_amount][_factor][_id].playerAddress.length;\r\n    }\r\n\r\n//get current players in room\r\n    function getRoomPlayerList(uint256 _amount, uint256 _factor, uint256 _id) public view returns(address[]) {\r\n        return room[_amount][_factor][_id].playerAddress;\r\n    }\r\n\r\n//get player state : Free, Joined, HashSent, RandomSent, Failed\r\n    function getPlayerState() public view returns(PlayerState) {\r\n        return player[msg.sender].state;\r\n    }\r\n\r\n//get joined room amount\r\n    function getRoomAmount() public view returns (uint256) {\r\n        require(player[msg.sender].state != PlayerState.Free, \"player not joined any room\");\r\n        return player[msg.sender].roomId.amount;\r\n    }\r\n\r\n// get joined room factor\r\n    function getRoomFactor() public view returns (uint256) {\r\n        require(player[msg.sender].state != PlayerState.Free, \"player not joined any room\");\r\n        return player[msg.sender].roomId.factor;\r\n    }\r\n\r\n//get joined room id\r\n    function getRoomId() public view returns (uint256) {\r\n        require(player[msg.sender].state != PlayerState.Free, \"player not joined any room\");\r\n        return player[msg.sender].roomId.id;\r\n    }\r\n    \r\n//////////////////////////////////////Contracts Functions, private\r\n\r\n//check hash of sent randomNumber with the hash sent before\r\n    function hashVerify(bytes _randomNumber, bytes32 _hashString) private pure returns(bool){\r\n        //return true;\r\n        return (keccak256(_randomNumber) == _hashString);\r\n    }\r\n    \r\n//1 vs 1 fight, player i vs i+1 in a room, result base on state and sent random number\r\n    function solo1vs1(RoomId roomId, uint256 i) private returns (address) {\r\n        address a1 = room[roomId.amount][roomId.factor][roomId.id].playerAddress[i];\r\n        address a2 = room[roomId.amount][roomId.factor][roomId.id].playerAddress[i+1];\r\n        require(a1 != a2, \"two compared address must be different\");\r\n        address winnerAddress = 0x0;\r\n        if (player[a1].state != PlayerState.RandomSent) winnerAddress = a2;\r\n        if (player[a2].state != PlayerState.RandomSent) winnerAddress = a1;\r\n        //both Verified\r\n        if (winnerAddress == 0x0) {\r\n            winnerAddress = a2;\r\n            // random winner of 2 Players\r\n            if ((player[a1].random + player[a2].random) % 2 == 0) \r\n            winnerAddress = a1;\r\n        }\r\n        address loserAddress = a1;\r\n        if (winnerAddress == a1) \r\n            loserAddress = a2;\r\n        freePlayer(loserAddress, true); \r\n\r\n        if (player[winnerAddress].state != PlayerState.RandomSent)\r\n            player[winnerAddress].state = PlayerState.Failed;\r\n\r\n        return winnerAddress;\r\n    }\r\n    \r\n    //free player from joined room, 2 case lost or refund\r\n    function freePlayer(address playerAddress, bool lost) private { \r\n        player[playerAddress].state = PlayerState.Free;\r\n        pendingAmount = pendingAmount.sub(player[playerAddress].roomId.amount.etherToWei());\r\n        if (lost)\r\n            emit BadNews(playerAddress);\r\n    }\r\n    \r\n    //set room state to WaitingPlayer and free all players\r\n    function cleanRoom(RoomId roomId) private {\r\n        uint256 restPlayers = room[roomId.amount][roomId.factor][roomId.id].playerAddress.length;\r\n        for (uint256 i = restPlayers - 1; i >= 0 ; i--) {\r\n            freePlayer(room[roomId.amount][roomId.factor][roomId.id].playerAddress[i], false);\r\n        }\r\n        room[roomId.amount][roomId.factor][roomId.id].playerAddress.length = 0;\r\n        toWaitingPlayer(roomId);\r\n    }\r\n\r\n    //check the winner of last round, if verified get reward, else contract is the winner\r\n    //this case happens only if nobody use dapp\r\n    function checkWinner(RoomId roomId) private {\r\n        address winner = room[roomId.amount][roomId.factor][roomId.id].playerAddress[0];\r\n        if (player[winner].state != PlayerState.RandomSent) {\r\n            freePlayer(winner, true);\r\n        }\r\n        else {\r\n            uint256 reward = roomId.amount.mul(roomId.factor).etherToWei().div(100).mul(REWARD_PERCENT);\r\n            totalIncome = totalIncome.sub(reward);\r\n            freePlayer(winner, false);\r\n            winner.transfer(reward);\r\n            emit GoodNews(winner, reward);\r\n        }\r\n        //clean room\r\n        room[roomId.amount][roomId.factor][roomId.id].playerAddress.length = 0;\r\n        toWaitingPlayer(roomId);\r\n    }\r\n    \r\n    //get result of a round, 50% players lose \r\n    function fighting(RoomId roomId) private {\r\n        uint256 restPlayers = room[roomId.amount][roomId.factor][roomId.id].playerAddress.length;\r\n        // pairs : 0 vs 1, 2 vs 3, 4 vs 5, 6 vs 7 ...\r\n        uint256 i = 0;\r\n        while (i < restPlayers) {\r\n            // i th vs i+1 th player in restPlayers\r\n            address winnerAddress = solo1vs1(roomId, i);\r\n            room[roomId.amount][roomId.factor][roomId.id].playerAddress[i / 2] = winnerAddress;\r\n            player[winnerAddress].pos = i/2;\r\n            i += 2;\r\n        }\r\n        \r\n        room[roomId.amount][roomId.factor][roomId.id].playerAddress.length /= 2;\r\n        \r\n        if (restPlayers == 2) checkWinner(roomId); \r\n        else toWaitingHash(roomId);\r\n    }\r\n    \r\n    //change room state functions\r\n    function toWaitingPlayer(RoomId roomId) private {\r\n        room[roomId.amount][roomId.factor][roomId.id].count = 0;\r\n        room[roomId.amount][roomId.factor][roomId.id].endTime = now;\r\n        room[roomId.amount][roomId.factor][roomId.id].state = RoomState.WaitingPlayer;\r\n    }\r\n        \r\n    function toWaitingRandom(RoomId roomId) private {\r\n        room[roomId.amount][roomId.factor][roomId.id].count = 0;\r\n        room[roomId.amount][roomId.factor][roomId.id].endTime = now;\r\n        room[roomId.amount][roomId.factor][roomId.id].state = RoomState.WaitingRandom;\r\n        emit RandomRequest(roomId.amount, roomId.factor, roomId.id);\r\n    }\r\n    \r\n    function toWaitingHash(RoomId roomId) private {\r\n        room[roomId.amount][roomId.factor][roomId.id].count = 0;\r\n        room[roomId.amount][roomId.factor][roomId.id].endTime = now;\r\n        room[roomId.amount][roomId.factor][roomId.id].state = RoomState.WaitingHash;\r\n        emit HashRequest(roomId.amount, roomId.factor, roomId.id);\r\n    }\r\n    \r\n    //if all rest players sent hash or verified\r\n    function roomReady(RoomId roomId) private view returns(bool) {\r\n        return (room[roomId.amount][roomId.factor][roomId.id].count ==\r\n            room[roomId.amount][roomId.factor][roomId.id].playerAddress.length);\r\n    }\r\n    \r\n    //time expired for hash or random sending\r\n    function roomStateExpired(RoomId roomId) private view returns(bool) {\r\n        return\r\n        (now.sub(room[roomId.amount][roomId.factor][roomId.id].endTime) > DICE_DURATION);\r\n    }\r\n    \r\n    //get first room with status WaitingPlayer, in case join any room\r\n    function getFirstFreeRoom(uint256 _amount, uint256 _factor) private returns(uint256) {\r\n        for (uint256 _id = 0; _id < roomNumber[_amount][_factor]; _id ++){\r\n            if (room[_amount][_factor][_id].state == RoomState.WaitingPlayer) return _id;\r\n        }\r\n        //all rooms full, create new room with id = _id after the above loop\r\n        RoomAtribute memory roomAtribute = RoomAtribute(new address[](0), 0, 0, RoomState.WaitingPlayer);\r\n        room[_amount][_factor][_id] = roomAtribute;\r\n        roomNumber[_amount][_factor]++; //increase number of rooms for this amount, factor\r\n        return _id; // create new room if all rooms full\r\n    }\r\n\r\n    //leave room, only if room state still = WaitingPlayer\r\n    function leaveRoom(RoomId roomId) private {\r\n        //move last Player to pos of msg.sender and delete last ele\r\n        uint256 pos = player[msg.sender].pos;\r\n        uint256 l = room[roomId.amount][roomId.factor][roomId.id].playerAddress.length;\r\n        address lastPlayer = room[roomId.amount][roomId.factor][roomId.id].playerAddress[l-1];\r\n        room[roomId.amount][roomId.factor][roomId.id].playerAddress[pos] = lastPlayer;\r\n        player[lastPlayer].pos = pos;\r\n        //delete last element\r\n        room[roomId.amount][roomId.factor][roomId.id].playerAddress.length--;\r\n        freePlayer(msg.sender, false);\r\n    }\r\n    \r\n    //////////////////////////////////////testing Functions\r\n    \r\n    function _initForAdmin() public onlyOwner { //tested\r\n        addAmount(1);\r\n        addAmount(2);\r\n        addAmount(5);\r\n        \r\n        addFactor(1);\r\n        addFactor(2);\r\n        addFactor(3);\r\n        \r\n    }\r\n\r\n//return total profit of this contract since it deployed\r\n    function getProfit() public view returns(uint256) {\r\n        return totalIncome.sub(pendingAmount);\r\n    }\r\n\r\n}",
  "sourcePath": "C:\\Users\\bestb\\Desktop\\Dapps\\private\\betting\\contracts\\BinaryBetting.sol",
  "compiler": {
    "name": "solc",
    "version": "0.4.24+commit.e67f0147.Emscripten.clang"
  },
  "schemaVersion": "2.0.1",
  "updatedAt": "2018-08-27T06:44:44.108Z"
}