{
  "contractName": "Blacklist",
  "abi": [
    {
      "constant": true,
      "inputs": [],
      "name": "owner",
      "outputs": [
        {
          "name": "",
          "type": "address"
        }
      ],
      "payable": false,
      "stateMutability": "view",
      "type": "function"
    },
    {
      "constant": true,
      "inputs": [
        {
          "name": "contractName",
          "type": "string"
        },
        {
          "name": "migrationId",
          "type": "string"
        }
      ],
      "name": "isMigrated",
      "outputs": [
        {
          "name": "",
          "type": "bool"
        }
      ],
      "payable": false,
      "stateMutability": "view",
      "type": "function"
    },
    {
      "constant": false,
      "inputs": [
        {
          "name": "newOwner",
          "type": "address"
        }
      ],
      "name": "transferOwnership",
      "outputs": [],
      "payable": false,
      "stateMutability": "nonpayable",
      "type": "function"
    },
    {
      "constant": true,
      "inputs": [
        {
          "name": "",
          "type": "address"
        }
      ],
      "name": "blacklist",
      "outputs": [
        {
          "name": "",
          "type": "bool"
        }
      ],
      "payable": false,
      "stateMutability": "view",
      "type": "function"
    },
    {
      "anonymous": false,
      "inputs": [
        {
          "indexed": false,
          "name": "addr",
          "type": "address"
        }
      ],
      "name": "BlacklistedAddressAdded",
      "type": "event"
    },
    {
      "anonymous": false,
      "inputs": [
        {
          "indexed": false,
          "name": "addr",
          "type": "address"
        }
      ],
      "name": "BlacklistedAddressRemoved",
      "type": "event"
    },
    {
      "anonymous": false,
      "inputs": [
        {
          "indexed": true,
          "name": "previousOwner",
          "type": "address"
        },
        {
          "indexed": true,
          "name": "newOwner",
          "type": "address"
        }
      ],
      "name": "OwnershipTransferred",
      "type": "event"
    },
    {
      "anonymous": false,
      "inputs": [
        {
          "indexed": false,
          "name": "contractName",
          "type": "string"
        },
        {
          "indexed": false,
          "name": "migrationId",
          "type": "string"
        }
      ],
      "name": "Migrated",
      "type": "event"
    },
    {
      "constant": false,
      "inputs": [
        {
          "name": "_sender",
          "type": "address"
        }
      ],
      "name": "initialize",
      "outputs": [],
      "payable": false,
      "stateMutability": "nonpayable",
      "type": "function"
    },
    {
      "constant": false,
      "inputs": [
        {
          "name": "addr",
          "type": "address"
        }
      ],
      "name": "addAddressToBlacklist",
      "outputs": [
        {
          "name": "success",
          "type": "bool"
        }
      ],
      "payable": false,
      "stateMutability": "nonpayable",
      "type": "function"
    },
    {
      "constant": false,
      "inputs": [
        {
          "name": "addrs",
          "type": "address[]"
        }
      ],
      "name": "addAddressesToBlacklist",
      "outputs": [
        {
          "name": "success",
          "type": "bool"
        }
      ],
      "payable": false,
      "stateMutability": "nonpayable",
      "type": "function"
    },
    {
      "constant": false,
      "inputs": [
        {
          "name": "addr",
          "type": "address"
        }
      ],
      "name": "removeAddressFromBlacklist",
      "outputs": [
        {
          "name": "success",
          "type": "bool"
        }
      ],
      "payable": false,
      "stateMutability": "nonpayable",
      "type": "function"
    },
    {
      "constant": false,
      "inputs": [
        {
          "name": "addrs",
          "type": "address[]"
        }
      ],
      "name": "removeAddressesFromBlacklist",
      "outputs": [
        {
          "name": "success",
          "type": "bool"
        }
      ],
      "payable": false,
      "stateMutability": "nonpayable",
      "type": "function"
    },
    {
      "constant": true,
      "inputs": [],
      "name": "getBlacklist",
      "outputs": [
        {
          "name": "",
          "type": "address[]"
        }
      ],
      "payable": false,
      "stateMutability": "view",
      "type": "function"
    },
    {
      "constant": true,
      "inputs": [],
      "name": "getBlacklistLength",
      "outputs": [
        {
          "name": "",
          "type": "uint256"
        }
      ],
      "payable": false,
      "stateMutability": "view",
      "type": "function"
    },
    {
      "constant": true,
      "inputs": [
        {
          "name": "id",
          "type": "uint256"
        }
      ],
      "name": "getBlacklistedById",
      "outputs": [
        {
          "name": "",
          "type": "address"
        }
      ],
      "payable": false,
      "stateMutability": "view",
      "type": "function"
    },
    {
      "constant": true,
      "inputs": [
        {
          "name": "addr",
          "type": "address"
        }
      ],
      "name": "inBlacklist",
      "outputs": [
        {
          "name": "",
          "type": "bool"
        }
      ],
      "payable": false,
      "stateMutability": "view",
      "type": "function"
    }
  ],
  "bytecode": "0x608060405234801561001057600080fd5b5061153e806100206000396000f3006080604052600436106100c4576000357c0100000000000000000000000000000000000000000000000000000000900463ffffffff16806286786e146100c95780633225879414610124578063338d6c30146101a257806335e82f3a1461020e5780638da5cb5b14610269578063bb84be39146102c0578063bd889ce41461032d578063c0bac1a814610358578063c4d66de81461041f578063ca73419e14610462578063f2c816ae146104e0578063f2fde38b1461053b578063f9f92be41461057e575b600080fd5b3480156100d557600080fd5b5061010a600480360381019080803573ffffffffffffffffffffffffffffffffffffffff1690602001909291905050506105d9565b604051808215151515815260200191505060405180910390f35b34801561013057600080fd5b506101886004803603810190808035906020019082018035906020019080806020026020016040519081016040528093929190818152602001838360200280828437820191505050505050919291929050505061062f565b604051808215151515815260200191505060405180910390f35b3480156101ae57600080fd5b506101b76106d9565b6040518080602001828103825283818151815260200191508051906020019060200280838360005b838110156101fa5780820151818401526020810190506101df565b505050509050019250505060405180910390f35b34801561021a57600080fd5b5061024f600480360381019080803573ffffffffffffffffffffffffffffffffffffffff169060200190929190505050610767565b604051808215151515815260200191505060405180910390f35b34801561027557600080fd5b5061027e610a1e565b604051808273ffffffffffffffffffffffffffffffffffffffff1673ffffffffffffffffffffffffffffffffffffffff16815260200191505060405180910390f35b3480156102cc57600080fd5b506102eb60048036038101908080359060200190929190505050610a44565b604051808273ffffffffffffffffffffffffffffffffffffffff1673ffffffffffffffffffffffffffffffffffffffff16815260200191505060405180910390f35b34801561033957600080fd5b50610342610a87565b6040518082815260200191505060405180910390f35b34801561036457600080fd5b50610405600480360381019080803590602001908201803590602001908080601f0160208091040260200160405190810160405280939291908181526020018383808284378201915050505050509192919290803590602001908201803590602001908080601f0160208091040260200160405190810160405280939291908181526020018383808284378201915050505050509192919290505050610a94565b604051808215151515815260200191505060405180910390f35b34801561042b57600080fd5b50610460600480360381019080803573ffffffffffffffffffffffffffffffffffffffff169060200190929190505050610b7f565b005b34801561046e57600080fd5b506104c660048036038101908080359060200190820180359060200190808060200260200160405190810160405280939291908181526020018383602002808284378201915050505050509192919290505050610e05565b604051808215151515815260200191505060405180910390f35b3480156104ec57600080fd5b50610521600480360381019080803573ffffffffffffffffffffffffffffffffffffffff169060200190929190505050610eaf565b604051808215151515815260200191505060405180910390f35b34801561054757600080fd5b5061057c600480360381019080803573ffffffffffffffffffffffffffffffffffffffff16906020019092919050505061108b565b005b34801561058a57600080fd5b506105bf600480360381019080803573ffffffffffffffffffffffffffffffffffffffff1690602001909291905050506111e3565b604051808215151515815260200191505060405180910390f35b6000600260008373ffffffffffffffffffffffffffffffffffffffff1673ffffffffffffffffffffffffffffffffffffffff16815260200190815260200160002060009054906101000a900460ff169050919050565b600080600160009054906101000a900473ffffffffffffffffffffffffffffffffffffffff1673ffffffffffffffffffffffffffffffffffffffff163373ffffffffffffffffffffffffffffffffffffffff1614151561068e57600080fd5b600090505b82518110156106d3576106bc83828151811015156106ad57fe5b90602001906020020151610767565b156106c657600191505b8080600101915050610693565b50919050565b6060600380548060200260200160405190810160405280929190818152602001828054801561075d57602002820191906000526020600020905b8160009054906101000a900473ffffffffffffffffffffffffffffffffffffffff1673ffffffffffffffffffffffffffffffffffffffff1681526020019060010190808311610713575b5050505050905090565b600080600160009054906101000a900473ffffffffffffffffffffffffffffffffffffffff1673ffffffffffffffffffffffffffffffffffffffff163373ffffffffffffffffffffffffffffffffffffffff161415156107c657600080fd5b600260008473ffffffffffffffffffffffffffffffffffffffff1673ffffffffffffffffffffffffffffffffffffffff16815260200190815260200160002060009054906101000a900460ff1615610a18576000600260008573ffffffffffffffffffffffffffffffffffffffff1673ffffffffffffffffffffffffffffffffffffffff16815260200190815260200160002060006101000a81548160ff021916908315150217905550600090505b6003805490508110156109b05760038181548110151561089157fe5b9060005260206000200160009054906101000a900473ffffffffffffffffffffffffffffffffffffffff1673ffffffffffffffffffffffffffffffffffffffff168373ffffffffffffffffffffffffffffffffffffffff1614156109a357600360016003805490500381548110151561090657fe5b9060005260206000200160009054906101000a900473ffffffffffffffffffffffffffffffffffffffff1660038281548110151561094057fe5b9060005260206000200160006101000a81548173ffffffffffffffffffffffffffffffffffffffff021916908373ffffffffffffffffffffffffffffffffffffffff160217905550600380548091906001900361099d91906114c1565b506109b0565b8080600101915050610875565b7fb9b02d6ef3069c468ac99865bad0d84ec0cf34671cb26053e5e47d415ae1756483604051808273ffffffffffffffffffffffffffffffffffffffff1673ffffffffffffffffffffffffffffffffffffffff16815260200191505060405180910390a1600191505b50919050565b600160009054906101000a900473ffffffffffffffffffffffffffffffffffffffff1681565b6000600382815481101515610a5557fe5b9060005260206000200160009054906101000a900473ffffffffffffffffffffffffffffffffffffffff169050919050565b6000600380549050905090565b600080836040518082805190602001908083835b602083101515610acd5780518252602082019150602081019050602083039250610aa8565b6001836020036101000a0380198251168184511680821785525050505050509050019150509081526020016040518091039020826040518082805190602001908083835b602083101515610b365780518252602082019150602081019050602083039250610b11565b6001836020036101000a038019825116818451168082178552505050505050905001915050908152602001604051809103902060009054906101000a900460ff16905092915050565b6040805190810160405280600981526020017f426c61636b6c69737400000000000000000000000000000000000000000000008152506040805190810160405280600381526020017f302e310000000000000000000000000000000000000000000000000000000000815250610bf58282610a94565b151515610c0157600080fd5b610c0a83611203565b7fdd117a11c22118c9dee4b5a67ce578bc44529dce21ee0ccc439588fbb9fb4ea38282604051808060200180602001838103835285818151815260200191508051906020019080838360005b83811015610c71578082015181840152602081019050610c56565b50505050905090810190601f168015610c9e5780820380516001836020036101000a031916815260200191505b50838103825284818151815260200191508051906020019080838360005b83811015610cd7578082015181840152602081019050610cbc565b50505050905090810190601f168015610d045780820380516001836020036101000a031916815260200191505b5094505050505060405180910390a160016000836040518082805190602001908083835b602083101515610d4d5780518252602082019150602081019050602083039250610d28565b6001836020036101000a0380198251168184511680821785525050505050509050019150509081526020016040518091039020826040518082805190602001908083835b602083101515610db65780518252602082019150602081019050602083039250610d91565b6001836020036101000a038019825116818451168082178552505050505050905001915050908152602001604051809103902060006101000a81548160ff021916908315150217905550505050565b600080600160009054906101000a900473ffffffffffffffffffffffffffffffffffffffff1673ffffffffffffffffffffffffffffffffffffffff163373ffffffffffffffffffffffffffffffffffffffff16141515610e6457600080fd5b600090505b8251811015610ea957610e928382815181101515610e8357fe5b90602001906020020151610eaf565b15610e9c57600191505b8080600101915050610e69565b50919050565b6000600160009054906101000a900473ffffffffffffffffffffffffffffffffffffffff1673ffffffffffffffffffffffffffffffffffffffff163373ffffffffffffffffffffffffffffffffffffffff16141515610f0d57600080fd5b600260008373ffffffffffffffffffffffffffffffffffffffff1673ffffffffffffffffffffffffffffffffffffffff16815260200190815260200160002060009054906101000a900460ff161515611086576001600260008473ffffffffffffffffffffffffffffffffffffffff1673ffffffffffffffffffffffffffffffffffffffff16815260200190815260200160002060006101000a81548160ff02191690831515021790555060038290806001815401808255809150509060018203906000526020600020016000909192909190916101000a81548173ffffffffffffffffffffffffffffffffffffffff021916908373ffffffffffffffffffffffffffffffffffffffff160217905550507fee71faa2d1e96ac74ee4023d6ffa8abfa43b7648f51e3dbd8ec561823e9df13282604051808273ffffffffffffffffffffffffffffffffffffffff1673ffffffffffffffffffffffffffffffffffffffff16815260200191505060405180910390a1600190505b919050565b600160009054906101000a900473ffffffffffffffffffffffffffffffffffffffff1673ffffffffffffffffffffffffffffffffffffffff163373ffffffffffffffffffffffffffffffffffffffff161415156110e757600080fd5b600073ffffffffffffffffffffffffffffffffffffffff168173ffffffffffffffffffffffffffffffffffffffff161415151561112357600080fd5b8073ffffffffffffffffffffffffffffffffffffffff16600160009054906101000a900473ffffffffffffffffffffffffffffffffffffffff1673ffffffffffffffffffffffffffffffffffffffff167f8be0079c531659141344cd1fd0a4f28419497f9722a3daafe3b4186f6b6457e060405160405180910390a380600160006101000a81548173ffffffffffffffffffffffffffffffffffffffff021916908373ffffffffffffffffffffffffffffffffffffffff16021790555050565b60026020528060005260406000206000915054906101000a900460ff1681565b6040805190810160405280600781526020017f4f776e61626c65000000000000000000000000000000000000000000000000008152506040805190810160405280600581526020017f312e392e300000000000000000000000000000000000000000000000000000008152506112798282610a94565b15151561128557600080fd5b82600160006101000a81548173ffffffffffffffffffffffffffffffffffffffff021916908373ffffffffffffffffffffffffffffffffffffffff1602179055507fdd117a11c22118c9dee4b5a67ce578bc44529dce21ee0ccc439588fbb9fb4ea38282604051808060200180602001838103835285818151815260200191508051906020019080838360005b8381101561132d578082015181840152602081019050611312565b50505050905090810190601f16801561135a5780820380516001836020036101000a031916815260200191505b50838103825284818151815260200191508051906020019080838360005b83811015611393578082015181840152602081019050611378565b50505050905090810190601f1680156113c05780820380516001836020036101000a031916815260200191505b5094505050505060405180910390a160016000836040518082805190602001908083835b60208310151561140957805182526020820191506020810190506020830392506113e4565b6001836020036101000a0380198251168184511680821785525050505050509050019150509081526020016040518091039020826040518082805190602001908083835b602083101515611472578051825260208201915060208101905060208303925061144d565b6001836020036101000a038019825116818451168082178552505050505050905001915050908152602001604051809103902060006101000a81548160ff021916908315150217905550505050565b8154818355818111156114e8578183600052602060002091820191016114e791906114ed565b5b505050565b61150f91905b8082111561150b5760008160009055506001016114f3565b5090565b905600a165627a7a723058201adf9cedc905d7e905dac81d56fb9cbfbf4724f107992e6f9933ed54e7503cdd0029",
  "source": "pragma solidity ^0.4.24;\r\n    \r\nimport \"./Ownable.sol\";\r\n//import \"openzeppelin-zos/contracts/ownership/Ownable.sol\";\r\n    \r\n    \r\n    /**\r\n     * @title Blacklist\r\n     * @dev The Blacklist contract has a blacklist of addresses, and provides basic authorization control functions.\r\n     * @dev This simplifies the implementation of \"user permissions\".\r\n     */\r\ncontract Blacklist is Ownable {\r\n    mapping(address => bool) public blacklist;\r\n    \r\n    address[] keys;\r\n    \r\n    event BlacklistedAddressAdded(address addr);\r\n    event BlacklistedAddressRemoved(address addr);\r\n    \r\n    function initialize(address _sender) isInitializer(\"Blacklist\", \"0.1\")  public {\r\n        Ownable.initialize(_sender);\r\n    }\r\n    \r\n      /**\r\n       * @dev Throws if called by any account that's whitelist (a.k.a not blacklist)\r\n       */\r\n    modifier isBlacklisted() {\r\n        require(blacklist[msg.sender]);\r\n        _;\r\n    }\r\n      \r\n    /**\r\n    * @dev Throws if called by any account that's blacklist.\r\n    */\r\n    modifier isNotBlacklisted() {\r\n        require(!blacklist[msg.sender]);\r\n        _;\r\n    }\r\n    \r\n    /**\r\n    * @dev Add an address to the blacklist\r\n    * @param addr address\r\n    * @return true if the address was added to the blacklist, false if the address was already in the blacklist\r\n    */\r\n    function addAddressToBlacklist(address addr) onlyOwner public returns(bool success) {\r\n        if (!blacklist[addr]) {\r\n            blacklist[addr] = true;\r\n            keys.push(addr);\r\n            emit BlacklistedAddressAdded(addr);\r\n            success = true;\r\n        }\r\n    }\r\n    \r\n    /**\r\n    * @dev Add addresses to the blacklist\r\n    * @param addrs addresses\r\n    * @return true if at least one address was added to the blacklist,\r\n    * false if all addresses were already in the blacklist\r\n    */\r\n    function addAddressesToBlacklist(address[] addrs) onlyOwner public returns(bool success) {\r\n        for (uint256 i = 0; i < addrs.length; i++) {\r\n                if (addAddressToBlacklist(addrs[i])) {\r\n                success = true;\r\n            }\r\n        }\r\n    }\r\n    \r\n    /**\r\n    * @dev Remove an address from the blacklist\r\n    * @param addr address\r\n    * @return true if the address was removed from the blacklist,\r\n    * false if the address wasn't in the blacklist in the first place\r\n    */\r\n    function removeAddressFromBlacklist(address addr) onlyOwner public returns(bool success) {\r\n        if (blacklist[addr]) {\r\n            blacklist[addr] = false;\r\n            for (uint i = 0; i < keys.length; i++) {\r\n                if (addr == keys[i]) {\r\n                    keys[i] = keys[keys.length - 1];\r\n                    keys.length--;\r\n                    break;\r\n                }\r\n            }\r\n            emit BlacklistedAddressRemoved(addr);\r\n            success = true;\r\n        }\r\n    }\r\n\r\n    /**\r\n    * @dev Remove addresses from the blacklist\r\n    * @param addrs addresses\r\n    * @return true if at least one address was removed from the blacklist,\r\n    * false if all addresses weren't in the blacklist in the first place\r\n    */\r\n    function removeAddressesFromBlacklist(address[] addrs) onlyOwner public returns(bool success) {\r\n        for (uint256 i = 0; i < addrs.length; i++) {\r\n            if (removeAddressFromBlacklist(addrs[i])) {\r\n                success = true;\r\n            }\r\n        }\r\n    }\r\n\r\n    /**\r\n    * @dev Get all blacklist wallet addresses\r\n    */\r\n    function getBlacklist() public view returns (address[]) {\r\n        return keys;\r\n    }\r\n    \r\n    function getBlacklistLength() public view returns (uint256) {\r\n        return keys.length;\r\n    }\r\n\r\n    function getBlacklistedById(uint256 id) public view returns (address) {\r\n        return keys[id];\r\n    }\r\n\r\n    function inBlacklist(address addr) public view returns(bool) {\r\n        return blacklist[addr];\r\n    }\r\n\r\n} \r\n",
  "sourcePath": "C:\\Users\\bestb\\Desktop\\Dapps\\nexty\\dapp-voting\\contracts\\Blacklist.sol",
  "compiler": {
    "name": "solc",
    "version": "0.4.24+commit.e67f0147.Emscripten.clang"
  },
  "schemaVersion": "2.0.1",
  "updatedAt": "2018-08-29T04:22:54.651Z"
}