{
  "contractName": "Migratable",
  "abi": [
    {
      "anonymous": false,
      "inputs": [
        {
          "indexed": false,
          "name": "contractName",
          "type": "string"
        },
        {
          "indexed": false,
          "name": "migrationId",
          "type": "string"
        }
      ],
      "name": "Migrated",
      "type": "event"
    },
    {
      "constant": true,
      "inputs": [
        {
          "name": "contractName",
          "type": "string"
        },
        {
          "name": "migrationId",
          "type": "string"
        }
      ],
      "name": "isMigrated",
      "outputs": [
        {
          "name": "",
          "type": "bool"
        }
      ],
      "payable": false,
      "stateMutability": "view",
      "type": "function"
    }
  ],
  "bytecode": "0x608060405234801561001057600080fd5b50610224806100206000396000f300608060405260043610610041576000357c0100000000000000000000000000000000000000000000000000000000900463ffffffff168063c0bac1a814610046575b600080fd5b34801561005257600080fd5b506100f3600480360381019080803590602001908201803590602001908080601f0160208091040260200160405190810160405280939291908181526020018383808284378201915050505050509192919290803590602001908201803590602001908080601f016020809104026020016040519081016040528093929190818152602001838380828437820191505050505050919291929050505061010d565b604051808215151515815260200191505060405180910390f35b600080836040518082805190602001908083835b6020831015156101465780518252602082019150602081019050602083039250610121565b6001836020036101000a0380198251168184511680821785525050505050509050019150509081526020016040518091039020826040518082805190602001908083835b6020831015156101af578051825260208201915060208101905060208303925061018a565b6001836020036101000a038019825116818451168082178552505050505050905001915050908152602001604051809103902060009054906101000a900460ff169050929150505600a165627a7a72305820c2f2b35b62429f43caacbd0f1c387b367f4b8a888c45512290528863487f91540029",
  "source": "pragma solidity ^0.4.21;\r\n\r\n\r\n/**\r\n * @title Migratable\r\n * Helper contract to support intialization and migration schemes between\r\n * different implementations of a contract in the context of upgradeability.\r\n * To use it, replace the constructor with a function that has the\r\n * `isInitializer` modifier starting with `\"0\"` as `migrationId`.\r\n * When you want to apply some migration code during an upgrade, increase\r\n * the `migrationId`. Or, if the migration code must be applied only after\r\n * another migration has been already applied, use the `isMigration` modifier.\r\n * This helper supports multiple inheritance.\r\n * WARNING: It is the developer's responsibility to ensure that migrations are\r\n * applied in a correct order, or that they are run at all.\r\n * See `Initializable` for a simpler version.\r\n */\r\ncontract Migratable {\r\n  /**\r\n   * @dev Emitted when the contract applies a migration.\r\n   * @param contractName Name of the Contract.\r\n   * @param migrationId Identifier of the migration applied.\r\n   */\r\n  event Migrated(string contractName, string migrationId);\r\n\r\n  /**\r\n   * @dev Mapping of the already applied migrations.\r\n   * (contractName => (migrationId => bool))\r\n   */\r\n  mapping (string => mapping (string => bool)) internal migrated;\r\n\r\n\r\n  /**\r\n   * @dev Modifier to use in the initialization function of a contract.\r\n   * @param contractName Name of the contract.\r\n   * @param migrationId Identifier of the migration.\r\n   */\r\n  modifier isInitializer(string contractName, string migrationId) {\r\n    require(!isMigrated(contractName, migrationId));\r\n    _;\r\n    emit Migrated(contractName, migrationId);\r\n    migrated[contractName][migrationId] = true;\r\n  }\r\n\r\n  /**\r\n   * @dev Modifier to use in the migration of a contract.\r\n   * @param contractName Name of the contract.\r\n   * @param requiredMigrationId Identifier of the previous migration, required\r\n   * to apply new one.\r\n   * @param newMigrationId Identifier of the new migration to be applied.\r\n   */\r\n  modifier isMigration(string contractName, string requiredMigrationId, string newMigrationId) {\r\n    require(isMigrated(contractName, requiredMigrationId) && !isMigrated(contractName, newMigrationId));\r\n    _;\r\n    emit Migrated(contractName, newMigrationId);\r\n    migrated[contractName][newMigrationId] = true;\r\n  }\r\n\r\n  /**\r\n   * @dev Returns true if the contract migration was applied.\r\n   * @param contractName Name of the contract.\r\n   * @param migrationId Identifier of the migration.\r\n   * @return true if the contract migration was applied, false otherwise.\r\n   */\r\n  function isMigrated(string contractName, string migrationId) public view returns(bool) {\r\n    return migrated[contractName][migrationId];\r\n  }\r\n}\r\n",
  "sourcePath": "C:\\Users\\bestb\\Desktop\\Dapps\\nexty\\dapp-voting\\contracts\\Migratable.sol",
  "compiler": {
    "name": "solc",
    "version": "0.4.24+commit.e67f0147.Emscripten.clang"
  },
  "schemaVersion": "2.0.1",
  "updatedAt": "2018-08-29T04:22:37.013Z"
}