{
  "contractName": "MultiOwnable",
  "abi": [
    {
      "constant": true,
      "inputs": [
        {
          "name": "",
          "type": "uint256"
        }
      ],
      "name": "owners",
      "outputs": [
        {
          "name": "",
          "type": "address"
        }
      ],
      "payable": false,
      "stateMutability": "view",
      "type": "function"
    },
    {
      "constant": true,
      "inputs": [],
      "name": "manager",
      "outputs": [
        {
          "name": "",
          "type": "address"
        }
      ],
      "payable": false,
      "stateMutability": "view",
      "type": "function"
    },
    {
      "constant": true,
      "inputs": [
        {
          "name": "",
          "type": "address"
        }
      ],
      "name": "ownerByAddress",
      "outputs": [
        {
          "name": "",
          "type": "bool"
        }
      ],
      "payable": false,
      "stateMutability": "view",
      "type": "function"
    },
    {
      "inputs": [],
      "payable": false,
      "stateMutability": "nonpayable",
      "type": "constructor"
    },
    {
      "anonymous": false,
      "inputs": [
        {
          "indexed": false,
          "name": "owners",
          "type": "address[]"
        }
      ],
      "name": "SetOwners",
      "type": "event"
    },
    {
      "constant": false,
      "inputs": [
        {
          "name": "_owners",
          "type": "address[]"
        }
      ],
      "name": "setOwners",
      "outputs": [],
      "payable": false,
      "stateMutability": "nonpayable",
      "type": "function"
    },
    {
      "constant": true,
      "inputs": [],
      "name": "getOwners",
      "outputs": [
        {
          "name": "",
          "type": "address[]"
        }
      ],
      "payable": false,
      "stateMutability": "view",
      "type": "function"
    }
  ],
  "bytecode": "0x608060405234801561001057600080fd5b50336000806101000a81548173ffffffffffffffffffffffffffffffffffffffff021916908373ffffffffffffffffffffffffffffffffffffffff1602179055506106a5806100606000396000f30060806040526004361061006d576000357c0100000000000000000000000000000000000000000000000000000000900463ffffffff168063025e7c2714610072578063481c6a75146100df578063a0e67e2b14610136578063eb6b192f146101a2578063fa4d3698146101fd575b600080fd5b34801561007e57600080fd5b5061009d60048036038101908080359060200190929190505050610263565b604051808273ffffffffffffffffffffffffffffffffffffffff1673ffffffffffffffffffffffffffffffffffffffff16815260200191505060405180910390f35b3480156100eb57600080fd5b506100f46102a1565b604051808273ffffffffffffffffffffffffffffffffffffffff1673ffffffffffffffffffffffffffffffffffffffff16815260200191505060405180910390f35b34801561014257600080fd5b5061014b6102c6565b6040518080602001828103825283818151815260200191508051906020019060200280838360005b8381101561018e578082015181840152602081019050610173565b505050509050019250505060405180910390f35b3480156101ae57600080fd5b506101e3600480360381019080803573ffffffffffffffffffffffffffffffffffffffff169060200190929190505050610354565b604051808215151515815260200191505060405180910390f35b34801561020957600080fd5b5061026160048036038101908080359060200190820180359060200190808060200260200160405190810160405280939291908181526020018383602002808284378201915050505050509192919290505050610374565b005b60018181548110151561027257fe5b906000526020600020016000915054906101000a900473ffffffffffffffffffffffffffffffffffffffff1681565b6000809054906101000a900473ffffffffffffffffffffffffffffffffffffffff1681565b6060600180548060200260200160405190810160405280929190818152602001828054801561034a57602002820191906000526020600020905b8160009054906101000a900473ffffffffffffffffffffffffffffffffffffffff1673ffffffffffffffffffffffffffffffffffffffff1681526020019060010190808311610300575b5050505050905090565b60026020528060005260406000206000915054906101000a900460ff1681565b6000809054906101000a900473ffffffffffffffffffffffffffffffffffffffff1673ffffffffffffffffffffffffffffffffffffffff163373ffffffffffffffffffffffffffffffffffffffff161415156103cf57600080fd5b6103d8816103db565b50565b600080600091505b60018054905082101561048e5760006002600060018581548110151561040557fe5b9060005260206000200160009054906101000a900473ffffffffffffffffffffffffffffffffffffffff1673ffffffffffffffffffffffffffffffffffffffff1673ffffffffffffffffffffffffffffffffffffffff16815260200190815260200160002060006101000a81548160ff02191690831515021790555081806001019250506103e3565b600090505b82518110156105185760016002600085848151811015156104b057fe5b9060200190602002015173ffffffffffffffffffffffffffffffffffffffff1673ffffffffffffffffffffffffffffffffffffffff16815260200190815260200160002060006101000a81548160ff0219169083151502179055508080600101915050610493565b826001908051906020019061052e9291906105ac565b507f9465cd279c2de393c5568ae444599e3644e3d1864ca2c05ced8a654df2aea3cb836040518080602001828103825283818151815260200191508051906020019060200280838360005b83811015610594578082015181840152602081019050610579565b505050509050019250505060405180910390a1505050565b828054828255906000526020600020908101928215610625579160200282015b828111156106245782518260006101000a81548173ffffffffffffffffffffffffffffffffffffffff021916908373ffffffffffffffffffffffffffffffffffffffff160217905550916020019190600101906105cc565b5b5090506106329190610636565b5090565b61067691905b8082111561067257600081816101000a81549073ffffffffffffffffffffffffffffffffffffffff02191690555060010161063c565b5090565b905600a165627a7a72305820e1c97f1563743260bcd778917083c4a9f59f673c992e1bf881b24043522d36d00029",
  "source": "pragma solidity ^0.4.24;\n\nimport './SafeMath.sol';\n\n/**\n * Welcome to the Project to share Profit from satellite Dapps\n */\ncontract Token {\n    uint256 public totalSupply;\n\n    function balanceOf(address who) public constant returns (uint256);\n    function transfer(address to, uint256 value) public returns (bool);\n    function allowance(address owner, address spender) public constant returns (uint256);\n    function transferFrom(address from, address to, uint256 value) public returns (bool);\n    function approve(address spender, uint256 value) public returns (bool);\n\n    event Transfer(address indexed from, address indexed to, uint256 value);\n    event Approval(address indexed owner, address indexed spender, uint256 value);\n}\n\n/**\n * @title MultiOwnable\n * @dev The MultiOwnable contract has owners addresses and provides basic authorization control\n * functions, this simplifies the implementation of \"users permissions\".\n */\ncontract MultiOwnable {\n    address public manager; // address used to set owners\n    address[] public owners;\n    mapping(address => bool) public ownerByAddress;\n\n    event SetOwners(address[] owners);\n\n    modifier onlyOwner() {\n        require(ownerByAddress[msg.sender] == true);\n        _;\n    }\n\n    /**\n     * @dev MultiOwnable constructor sets the manager\n     */\n    constructor() public {\n        manager = msg.sender;\n    }\n\n    /**\n     * @dev Function to set owners addresses\n     */\n    function setOwners(address[] _owners) public {\n        require(msg.sender == manager);\n        _setOwners(_owners);\n\n    }\n\n    function _setOwners(address[] _owners) internal {\n        for(uint256 i = 0; i < owners.length; i++) {\n            ownerByAddress[owners[i]] = false;\n        }\n\n\n        for(uint256 j = 0; j < _owners.length; j++) {\n            ownerByAddress[_owners[j]] = true;\n        }\n        owners = _owners;\n        emit SetOwners(_owners);\n    }\n\n    function getOwners() public constant returns (address[]) {\n        return owners;\n    }\n}\n\ncontract Pausable is MultiOwnable {\n\n    int public endDate;\n\n    /**\n    * @dev modifier to allow actions only when the contract IS not paused\n    */\n    modifier whenNotPaused() {\n        //require(now >= endDate);\n        _;\n    }\n}\n\ncontract StandardToken is Token, Pausable {\n    using SafeMath for uint256;\n    mapping(address => mapping (address => uint256)) internal allowed;\n    mapping(address => uint256) balances;\n\n    /**\n    * @dev transfer token for a specified address\n    * @param _to The address to transfer to.\n    * @param _value The amount to be transferred.\n    */\n    function transfer(address _to, uint256 _value) public whenNotPaused returns (bool) {\n        require(_to != address(0));\n        require(balances[msg.sender] >= _value && balances[_to].add(_value) >= balances[_to]);\n\n        balances[msg.sender] = balances[msg.sender].sub(_value);\n        balances[_to] = balances[_to].add(_value);\n\n        emit Transfer(msg.sender, _to, _value);\n        return true;\n    }\n\n    /**\n    * @dev Gets the balance of the specified address.\n    * @param _owner The address to query the the balance of.\n    * @return An uint256 representing the amount owned by the passed address.\n    */\n    function balanceOf(address _owner) public constant returns (uint256 balance) {\n        return balances[_owner];\n    }\n\n\n    /**\n    * @dev Transfer tokens from one address to another\n    * @param _from address The address which you want to send tokens from\n    * @param _to address The address which you want to transfer to\n    * @param _value uint256 the amount of tokens to be transferred\n    */\n    function transferFrom(address _from, address _to, uint256 _value) public whenNotPaused returns (bool) {\n        require(_to != address(0));\n        require(_value <= allowed[_from][msg.sender]);\n\n        balances[_from] = balances[_from].sub(_value);\n        balances[_to] = balances[_to].add(_value);\n        allowed[_from][msg.sender] = allowed[_from][msg.sender].sub(_value);\n\n        emit Transfer(_from, _to, _value);\n        return true;\n    }\n\n    /**\n    * @dev Approve the passed address to spend the specified amount of tokens on behalf of msg.sender.\n    *\n    * Beware that changing an allowance with this method brings the risk that someone may use both the old\n    * and the new allowance by unfortunate transaction ordering. One possible solution to mitigate this\n    * race condition is to first reduce the spender's allowance to 0 and set the desired value afterwards:\n    * https://github.com/ethereum/EIPs/issues/20#issuecomment-263524729\n    * @param _spender The address which will spend the funds.\n    * @param _value The amount of tokens to be spent.\n    */\n    function approve(address _spender, uint256 _value) public returns (bool) {\n        allowed[msg.sender][_spender] = _value;\n\n        emit Approval(msg.sender, _spender, _value);\n        return true;\n    }\n\n    /**\n    * @dev Function to check the amount of tokens that an owner allowed to a spender.\n    * @param _owner address The address which owns the funds.\n    * @param _spender address The address which will spend the funds.\n    * @return A uint256 specifying the amount of tokens still available for the spender.\n    */\n    function allowance(address _owner, address _spender) public constant returns (uint256 remaining) {\n        return allowed[_owner][_spender];\n    }\n\n    /**\n    * approve should be called when allowed[_spender] == 0. To increment\n    * allowed value is better to use this function to avoid 2 calls (and wait until\n    * the first transaction is mined)\n    * From MonolithDAO Token.sol\n    */\n    function increaseApproval(address _spender, uint256 _addedValue) public returns (bool success) {\n        allowed[msg.sender][_spender] = allowed[msg.sender][_spender].add(_addedValue);\n\n        emit Approval(msg.sender, _spender, allowed[msg.sender][_spender]);\n        return true;\n    }\n\n    function decreaseApproval(address _spender, uint256 _subtractedValue) public returns (bool success) {\n        uint256 oldValue = allowed[msg.sender][_spender];\n\n        if (_subtractedValue > oldValue) {\n          allowed[msg.sender][_spender] = 0;\n        } else {\n          allowed[msg.sender][_spender] = oldValue.sub(_subtractedValue);\n        }\n\n        emit Approval(msg.sender, _spender, allowed[msg.sender][_spender]);\n        return true;\n    }\n}\n\ncontract Dapp {\n    //transfer all profit to token contract\n    function pushToBank() public pure {}\n    //return total profit of dapp since deployed\n    function getProfit() public pure returns(uint256) {} \n}\n\ncontract SPToken is StandardToken {\n    using SafeMath for int;\n    string public constant name = \"Share Profit Token\";\n    string public constant symbol = \"SP\";\n    uint256 public constant INITIAL_SUPPLY = 1000000000;\n    //uint256 public constant END_DATE = 1532490600; // should be 1532490600 in mainnet\n    address public tokenWallet;\n    address public manager;\n\n    //List of Dapps Contract\n    //all Dapps got a public function called pushToBank and holdingProfit\n    //which transfer all current Profit to this Contract - tokenHolder\n    address[] public dapps;\n    mapping(address => bool) public accepted;\n    mapping(address => int256) public credit;\n\n    //Modifiers\n\n    modifier onlyManager() {\n        require(msg.sender == manager);\n        _;\n    }\n\n    event profitClaimSuccess(address _address, uint256 _amount);\n    event profitCollectSuccess(address _address);\n\n    constructor(address _tokenOwner) public {\n        totalSupply = INITIAL_SUPPLY;\n        tokenWallet = _tokenOwner;\n        manager = _tokenOwner; \n        balances[tokenWallet] = totalSupply;\n        emit Transfer(0x0, tokenWallet, balances[tokenWallet]);\n    }\n\n\n    function () public payable {\n    }\n\n    function getBalance() public view returns(uint256){\n        return address(this).balance;\n    }\n\n    function addContract(address _address) public onlyManager {\n        dapps.push(_address);\n        accepted[_address] = true;\n    }\n\n    function profitCollect() public {\n        Dapp dapp;\n        for (uint256 i= 0; i < dapps.length; i++)\n        if (accepted[dapps[i]])\n        {\n            dapp = Dapp(dapps[i]);\n            dapp.pushToBank(); // send profit from this dapp to tokenHolder(Bank)\n        }\n        emit profitCollectSuccess(msg.sender);\n    }\n\n    function profitClaim() public {\n        address sender= msg.sender;\n        int256 claimAmount= getClaimableAmount();\n        //.add(credit[sender]);\n        //W: claimAmount, P: totalProfit, t: balances[msg.sender] / totalSupply, C: credit[msg.sender];\n        //W= Pt + C\n        require(claimAmount > 0);\n        //if not enough to pay, collect profit\n        require(uint256(claimAmount) <= address(this).balance);\n        credit[sender]= credit[sender].sub(claimAmount);\n        sender.transfer(uint256(claimAmount));\n        emit profitClaimSuccess(sender, uint256(claimAmount));\n    }\n\n    function transfer(address _to, uint256 _value) public returns (bool) {\n        require(_to != address(0));\n        require(balances[msg.sender] >= _value && balances[_to].add(_value) >= balances[_to]);\n        uint256 totalProfit= getTotalProfit();\n        address _from= msg.sender;\n        //P: totalProfit, t: _amount / totalSupply, Sx: Balances[x] / totalSupply, Cx: credit[x]\n        //x: _from, y: _to\n        //transfer t% token from x to y\n        //Cx= Cx + Pt\n        //Cy= Cy + Pt\n        //Sx= Sx - t \n        //Sy= Sy + t\n        credit[_from]= credit[_from].add(int256(totalProfit.mul(_value).div(totalSupply)));\n        credit[_to]= credit[_to].sub(int256(totalProfit.mul(_value).div(totalSupply)));\n        balances[_from]= balances[_from].sub(_value);\n        balances[_to]= balances[_to].add(_value);\n        emit Transfer(msg.sender, _to, _value);\n        return true;\n    }\n\n    function getTokenAmount() public view returns(uint256){\n        return balances[msg.sender];\n    }\n\n    function getProfitByAddress(address _address) public pure returns(uint256) {\n        return Dapp(_address).getProfit();\n    }\n    \n    function getTotalProfit() public view returns(uint256) {\n        uint256 result= 0;\n        for (uint256 i= 0; i < dapps.length; i++) {\n            result = result.add(getProfitByAddress(dapps[i]));\n        }\n        return result;\n    }\n    \n    function getClaimableAmount() public view returns(int256) {\n        address sender = msg.sender;\n        uint256 totalProfit= getTotalProfit();\n        uint256 claimAmount= totalProfit.mul(balances[sender]).div(totalSupply);\n        //return int256(claimAmount.add(credit[sender]));\n        return int256(claimAmount) + credit[sender];\n    }\n}\n",
  "sourcePath": "C:\\Users\\bestb\\Desktop\\Dapps\\private\\betting\\contracts\\SPToken.sol",
  "compiler": {
    "name": "solc",
    "version": "0.4.24+commit.e67f0147.Emscripten.clang"
  },
  "schemaVersion": "2.0.1",
  "updatedAt": "2018-08-27T06:44:44.133Z"
}